{
  "_format": "hh-sol-artifact-1",
  "contractName": "ManagerContract",
  "sourceName": "contracts/ManagerContract.sol",
  "abi": [
    {
      "inputs": [],
      "stateMutability": "nonpayable",
      "type": "constructor"
    },
    {
      "inputs": [],
      "name": "createGambleOffer",
      "outputs": [],
      "stateMutability": "payable",
      "type": "function"
    },
    {
      "inputs": [],
      "name": "getGambleContracts",
      "outputs": [
        {
          "internalType": "contract GambleContract[]",
          "name": "",
          "type": "address[]"
        }
      ],
      "stateMutability": "view",
      "type": "function"
    },
    {
      "inputs": [
        {
          "internalType": "uint256",
          "name": "index",
          "type": "uint256"
        }
      ],
      "name": "viewGambleContracts",
      "outputs": [
        {
          "internalType": "contract GambleContract",
          "name": "",
          "type": "address"
        }
      ],
      "stateMutability": "view",
      "type": "function"
    }
  ],
  "bytecode": "0x608060405234801561001057600080fd5b50612963806100206000396000f3fe6080604052600436106100345760003560e01c80631b69a1bc146100395780631cd0eb13146100765780636b1988fb146100a1575b600080fd5b34801561004557600080fd5b50610060600480360381019061005b91906102e7565b6100ab565b60405161006d9190610393565b60405180910390f35b34801561008257600080fd5b5061008b6100f2565b604051610098919061046c565b60405180910390f35b6100a96101fd565b005b60008082815481106100c0576100bf61048e565b5b9060005260206000200160009054906101000a900473ffffffffffffffffffffffffffffffffffffffff169050919050565b606060008080549050905060008167ffffffffffffffff811115610119576101186104bd565b5b6040519080825280602002602001820160405280156101475781602001602082028036833780820191505090505b50905060005b828110156101f457600081815481106101695761016861048e565b5b9060005260206000200160009054906101000a900473ffffffffffffffffffffffffffffffffffffffff168282815181106101a7576101a661048e565b5b602002602001019073ffffffffffffffffffffffffffffffffffffffff16908173ffffffffffffffffffffffffffffffffffffffff168152505080806101ec9061051b565b91505061014d565b50809250505090565b600034333460405161020e9061029f565b610219929190610594565b6040518091039082f0905080158015610236573d6000803e3d6000fd5b5090506000819080600181540180825580915050600190039060005260206000200160009091909190916101000a81548173ffffffffffffffffffffffffffffffffffffffff021916908373ffffffffffffffffffffffffffffffffffffffff16021790555050565b612370806105be83390190565b600080fd5b6000819050919050565b6102c4816102b1565b81146102cf57600080fd5b50565b6000813590506102e1816102bb565b92915050565b6000602082840312156102fd576102fc6102ac565b5b600061030b848285016102d2565b91505092915050565b600073ffffffffffffffffffffffffffffffffffffffff82169050919050565b6000819050919050565b600061035961035461034f84610314565b610334565b610314565b9050919050565b600061036b8261033e565b9050919050565b600061037d82610360565b9050919050565b61038d81610372565b82525050565b60006020820190506103a86000830184610384565b92915050565b600081519050919050565b600082825260208201905092915050565b6000819050602082019050919050565b6103e381610372565b82525050565b60006103f583836103da565b60208301905092915050565b6000602082019050919050565b6000610419826103ae565b61042381856103b9565b935061042e836103ca565b8060005b8381101561045f57815161044688826103e9565b975061045183610401565b925050600181019050610432565b5085935050505092915050565b60006020820190508181036000830152610486818461040e565b905092915050565b7f4e487b7100000000000000000000000000000000000000000000000000000000600052603260045260246000fd5b7f4e487b7100000000000000000000000000000000000000000000000000000000600052604160045260246000fd5b7f4e487b7100000000000000000000000000000000000000000000000000000000600052601160045260246000fd5b6000610526826102b1565b91507fffffffffffffffffffffffffffffffffffffffffffffffffffffffffffffffff821415610559576105586104ec565b5b600182019050919050565b600061056f82610314565b9050919050565b61057f81610564565b82525050565b61058e816102b1565b82525050565b60006040820190506105a96000830185610576565b6105b66020830184610585565b939250505056fe60c06040526040516200237038038062002370833981810160405281019062000029919062000143565b8173ffffffffffffffffffffffffffffffffffffffff1660808173ffffffffffffffffffffffffffffffffffffffff1660601b815250508060a081815250506000600160146101000a81548160ff021916908360038111156200009157620000906200018a565b5b02179055505050620001b9565b600080fd5b600073ffffffffffffffffffffffffffffffffffffffff82169050919050565b6000620000d082620000a3565b9050919050565b620000e281620000c3565b8114620000ee57600080fd5b50565b6000815190506200010281620000d7565b92915050565b6000819050919050565b6200011d8162000108565b81146200012957600080fd5b50565b6000815190506200013d8162000112565b92915050565b600080604083850312156200015d576200015c6200009e565b5b60006200016d85828601620000f1565b925050602062000180858286016200012c565b9150509250929050565b7f4e487b7100000000000000000000000000000000000000000000000000000000600052602160045260246000fd5b60805160601c60a051612172620001fe600039600081816102950152610a1601526000818161062801528181610859015281816108e90152610a3e01526121726000f3fe6080604052600436106100915760003560e01c806362d05c781161005957806362d05c781461015a578063801f3961146101715780639c2f9c9b1461019c578063b2e2e539146101c7578063b9d91ad6146101f257610091565b806304a81f5d146100965780631fe543e3146100b257806338ba4614146100db578063392e2403146101045780633fc4f30b1461012f575b600080fd5b6100b060048036038101906100ab9190611162565b61021d565b005b3480156100be57600080fd5b506100d960048036038101906100d4919061131e565b6104ea565b005b3480156100e757600080fd5b5061010260048036038101906100fd919061131e565b61057a565b005b34801561011057600080fd5b5061011961078f565b60405161012691906113bb565b60405180910390f35b34801561013b57600080fd5b5061014461082e565b60405161015191906113bb565b60405180910390f35b34801561016657600080fd5b5061016f610857565b005b34801561017d57600080fd5b506101866109e5565b604051610193919061144d565b60405180910390f35b3480156101a857600080fd5b506101b16109fc565b6040516101be9190611477565b60405180910390f35b3480156101d357600080fd5b506101dc610a12565b6040516101e991906114a1565b60405180910390f35b3480156101fe57600080fd5b50610207610a3a565b60405161021491906113bb565b60405180910390f35b60006003811115610231576102306113d6565b5b600160149054906101000a900460ff166003811115610253576102526113d6565b5b14610293576040517f08c379a000000000000000000000000000000000000000000000000000000000815260040161028a90611519565b60405180910390fd5b7f00000000000000000000000000000000000000000000000000000000000000003410156102f6576040517f08c379a00000000000000000000000000000000000000000000000000000000081526004016102ed90611585565b60405180910390fd5b336000806101000a81548173ffffffffffffffffffffffffffffffffffffffff021916908373ffffffffffffffffffffffffffffffffffffffff16021790555060028161034391906115d4565b600060146101000a81548160ff021916908360ff160217905550600073708701a1dff4f478de54383e49a627ed4852c81673ffffffffffffffffffffffffffffffffffffffff16634306d35462017ed06040518263ffffffff1660e01b81526004016103af9190611624565b60206040518083038186803b1580156103c757600080fd5b505afa1580156103db573d6000803e3d6000fd5b505050506040513d601f19601f820116820180604052508101906103ff9190611654565b90507f191f47d7ba3f4f88d19e9319b7f1de020d2b991853e6141d8245adf92a8b080e81604051610430919061169a565b60405180910390a1600061044382610a62565b905080341015610488576040517f08c379a000000000000000000000000000000000000000000000000000000000815260040161047f90611727565b60405180910390fd5b662386f26fc100008161049b9190611776565b90506104a681610bc5565b60006104b862017ed060036001610c3d565b905060018060146101000a81548160ff021916908360038111156104df576104de6113d6565b5b021790555050505050565b73708701a1dff4f478de54383e49a627ed4852c81673ffffffffffffffffffffffffffffffffffffffff163373ffffffffffffffffffffffffffffffffffffffff161461056c576040517f08c379a000000000000000000000000000000000000000000000000000000000815260040161056390611818565b60405180910390fd5b610576828261057a565b5050565b600060028260008151811061059257610591611838565b5b60200260200101516105a49190611867565b9050600060149054906101000a900460ff1660ff168114156106265760008054906101000a900473ffffffffffffffffffffffffffffffffffffffff16600160006101000a81548173ffffffffffffffffffffffffffffffffffffffff021916908373ffffffffffffffffffffffffffffffffffffffff160217905550610688565b7f0000000000000000000000000000000000000000000000000000000000000000600160006101000a81548173ffffffffffffffffffffffffffffffffffffffff021916908373ffffffffffffffffffffffffffffffffffffffff1602179055505b6000600160009054906101000a900473ffffffffffffffffffffffffffffffffffffffff1673ffffffffffffffffffffffffffffffffffffffff16476040516106d0906118c9565b60006040518083038185875af1925050503d806000811461070d576040519150601f19603f3d011682016040523d82523d6000602084013e610712565b606091505b5050905080610756576040517f08c379a000000000000000000000000000000000000000000000000000000000815260040161074d9061192a565b60405180910390fd5b6003600160146101000a81548160ff0219169083600381111561077c5761077b6113d6565b5b0217905550610789610e91565b50505050565b60006003808111156107a4576107a36113d6565b5b600160149054906101000a900460ff1660038111156107c6576107c56113d6565b5b14610806576040517f08c379a00000000000000000000000000000000000000000000000000000000081526004016107fd90611996565b60405180910390fd5b600160009054906101000a900473ffffffffffffffffffffffffffffffffffffffff16905090565b60008060009054906101000a900473ffffffffffffffffffffffffffffffffffffffff16905090565b7f000000000000000000000000000000000000000000000000000000000000000073ffffffffffffffffffffffffffffffffffffffff163373ffffffffffffffffffffffffffffffffffffffff16146108e5576040517f08c379a00000000000000000000000000000000000000000000000000000000081526004016108dc90611a28565b60405180910390fd5b60007f0000000000000000000000000000000000000000000000000000000000000000905060008173ffffffffffffffffffffffffffffffffffffffff1647604051610930906118c9565b60006040518083038185875af1925050503d806000811461096d576040519150601f19603f3d011682016040523d82523d6000602084013e610972565b606091505b50509050806109b6576040517f08c379a00000000000000000000000000000000000000000000000000000000081526004016109ad9061192a565b60405180910390fd5b6002600160146101000a81548160ff021916908360038111156109dc576109db6113d6565b5b02179055505050565b6000600160149054906101000a900460ff16905090565b60008060149054906101000a900460ff16905090565b60007f0000000000000000000000000000000000000000000000000000000000000000905090565b60007f0000000000000000000000000000000000000000000000000000000000000000905090565b60008073b4c4a493ab6356497713a78ffa6c60fb53517c6373ffffffffffffffffffffffffffffffffffffffff1663feaf968c6040518163ffffffff1660e01b815260040160a06040518083038186803b158015610abf57600080fd5b505afa158015610ad3573d6000803e3d6000fd5b505050506040513d601f19601f82011682018060405250810190610af79190611ab6565b505050915050600073b4c4a493ab6356497713a78ffa6c60fb53517c6373ffffffffffffffffffffffffffffffffffffffff1663313ce5676040518163ffffffff1660e01b815260040160206040518083038186803b158015610b5957600080fd5b505afa158015610b6d573d6000803e3d6000fd5b505050506040513d601f19601f82011682018060405250810190610b919190611b46565b9050600081600a610ba29190611ca6565b8584610bae9190611cf1565b610bb89190611e08565b9050809350505050919050565b73373cac07be6a672ba1e91d982f2f7959f1813f6873ffffffffffffffffffffffffffffffffffffffff1663c381bc1a826040518263ffffffff1660e01b81526004016000604051808303818588803b158015610c2157600080fd5b505af1158015610c35573d6000803e3d6000fd5b505050505050565b60008073708701a1dff4f478de54383e49a627ed4852c81673ffffffffffffffffffffffffffffffffffffffff16634306d354866040518263ffffffff1660e01b8152600401610c8d9190611624565b60206040518083038186803b158015610ca557600080fd5b505afa158015610cb9573d6000803e3d6000fd5b505050506040513d601f19601f82011682018060405250810190610cdd9190611654565b90507f9ba824a825ba160b072ef594e0b2d8a64c834aa76e938ebdfb294f0ad3254e1d81604051610d0e91906114a1565b60405180910390a1600073326c977e6efc84e512bb9c30f76e30c160ed06fb73ffffffffffffffffffffffffffffffffffffffff16634000aea073708701a1dff4f478de54383e49a627ed4852c81684898989604051602001610d7393929190611e8f565b6040516020818303038152906040526040518463ffffffff1660e01b8152600401610da093929190611f4e565b602060405180830381600087803b158015610dba57600080fd5b505af1158015610dce573d6000803e3d6000fd5b505050506040513d601f19601f82011682018060405250810190610df29190611fc4565b905073708701a1dff4f478de54383e49a627ed4852c81673ffffffffffffffffffffffffffffffffffffffff1663fc2a88c36040518163ffffffff1660e01b815260040160206040518083038186803b158015610e4e57600080fd5b505afa158015610e62573d6000803e3d6000fd5b505050506040513d601f19601f82011682018060405250810190610e869190611654565b925050509392505050565b600073326c977e6efc84e512bb9c30f76e30c160ed06fb73ffffffffffffffffffffffffffffffffffffffff166370a08231306040518263ffffffff1660e01b8152600401610ee091906113bb565b60206040518083038186803b158015610ef857600080fd5b505afa158015610f0c573d6000803e3d6000fd5b505050506040513d601f19601f82011682018060405250810190610f309190611654565b905060008111610f75576040517f08c379a0000000000000000000000000000000000000000000000000000000008152600401610f6c9061203d565b60405180910390fd5b600073326c977e6efc84e512bb9c30f76e30c160ed06fb73ffffffffffffffffffffffffffffffffffffffff1663095ea7b373373cac07be6a672ba1e91d982f2f7959f1813f68846040518363ffffffff1660e01b8152600401610fda92919061205d565b602060405180830381600087803b158015610ff457600080fd5b505af1158015611008573d6000803e3d6000fd5b505050506040513d601f19601f8201168201806040525081019061102c9190611fc4565b90508061106e576040517f08c379a0000000000000000000000000000000000000000000000000000000008152600401611065906120d2565b60405180910390fd5b73373cac07be6a672ba1e91d982f2f7959f1813f6873ffffffffffffffffffffffffffffffffffffffff16636bd14c7f83600160009054906101000a900473ffffffffffffffffffffffffffffffffffffffff166040518363ffffffff1660e01b81526004016110df929190612113565b600060405180830381600087803b1580156110f957600080fd5b505af115801561110d573d6000803e3d6000fd5b505050505050565b6000604051905090565b600080fd5b600080fd5b600060ff82169050919050565b61113f81611129565b811461114a57600080fd5b50565b60008135905061115c81611136565b92915050565b6000602082840312156111785761117761111f565b5b60006111868482850161114d565b91505092915050565b6000819050919050565b6111a28161118f565b81146111ad57600080fd5b50565b6000813590506111bf81611199565b92915050565b600080fd5b6000601f19601f8301169050919050565b7f4e487b7100000000000000000000000000000000000000000000000000000000600052604160045260246000fd5b611213826111ca565b810181811067ffffffffffffffff82111715611232576112316111db565b5b80604052505050565b6000611245611115565b9050611251828261120a565b919050565b600067ffffffffffffffff821115611271576112706111db565b5b602082029050602081019050919050565b600080fd5b600061129a61129584611256565b61123b565b905080838252602082019050602084028301858111156112bd576112bc611282565b5b835b818110156112e657806112d288826111b0565b8452602084019350506020810190506112bf565b5050509392505050565b600082601f830112611305576113046111c5565b5b8135611315848260208601611287565b91505092915050565b600080604083850312156113355761133461111f565b5b6000611343858286016111b0565b925050602083013567ffffffffffffffff81111561136457611363611124565b5b611370858286016112f0565b9150509250929050565b600073ffffffffffffffffffffffffffffffffffffffff82169050919050565b60006113a58261137a565b9050919050565b6113b58161139a565b82525050565b60006020820190506113d060008301846113ac565b92915050565b7f4e487b7100000000000000000000000000000000000000000000000000000000600052602160045260246000fd5b60048110611416576114156113d6565b5b50565b600081905061142782611405565b919050565b600061143782611419565b9050919050565b6114478161142c565b82525050565b6000602082019050611462600083018461143e565b92915050565b61147181611129565b82525050565b600060208201905061148c6000830184611468565b92915050565b61149b8161118f565b82525050565b60006020820190506114b66000830184611492565b92915050565b600082825260208201905092915050565b7f47616d626c65206f66666572206973206e6f74206f70656e20616e796d6f7265600082015250565b60006115036020836114bc565b915061150e826114cd565b602082019050919050565b60006020820190508181036000830152611532816114f6565b9050919050565b7f70617920656e6f75676820616d6f756e74000000000000000000000000000000600082015250565b600061156f6011836114bc565b915061157a82611539565b602082019050919050565b6000602082019050818103600083015261159e81611562565b9050919050565b7f4e487b7100000000000000000000000000000000000000000000000000000000600052601260045260246000fd5b60006115df82611129565b91506115ea83611129565b9250826115fa576115f96115a5565b5b828206905092915050565b600063ffffffff82169050919050565b61161e81611605565b82525050565b60006020820190506116396000830184611615565b92915050565b60008151905061164e81611199565b92915050565b60006020828403121561166a5761166961111f565b5b60006116788482850161163f565b91505092915050565b6000819050919050565b61169481611681565b82525050565b60006020820190506116af600083018461168b565b92915050565b7f6e6f20757365206f662067616d626c696e672e2e2e6d6f6e65792077696c6c2060008201527f676f20666f722076726600000000000000000000000000000000000000000000602082015250565b6000611711602a836114bc565b915061171c826116b5565b604082019050919050565b6000602082019050818103600083015261174081611704565b9050919050565b7f4e487b7100000000000000000000000000000000000000000000000000000000600052601160045260246000fd5b60006117818261118f565b915061178c8361118f565b9250827fffffffffffffffffffffffffffffffffffffffffffffffffffffffffffffffff038211156117c1576117c0611747565b5b828201905092915050565b7f6f6e6c792056524620563220777261707065722063616e2066756c66696c6c00600082015250565b6000611802601f836114bc565b915061180d826117cc565b602082019050919050565b60006020820190508181036000830152611831816117f5565b9050919050565b7f4e487b7100000000000000000000000000000000000000000000000000000000600052603260045260246000fd5b60006118728261118f565b915061187d8361118f565b92508261188d5761188c6115a5565b5b828206905092915050565b600081905092915050565b50565b60006118b3600083611898565b91506118be826118a3565b600082019050919050565b60006118d4826118a6565b9150819050919050565b7f4554482063616e74206265207472616e73666572726564000000000000000000600082015250565b60006119146017836114bc565b915061191f826118de565b602082019050919050565b6000602082019050818103600083015261194381611907565b9050919050565b7f57696e6e657220686173206e6f7420796574206265656e20666f756e64000000600082015250565b6000611980601d836114bc565b915061198b8261194a565b602082019050919050565b600060208201905081810360008301526119af81611973565b9050919050565b7f4f6e6c79206f66666572206d616b65722063616e2063616e63656c207468697360008201527f206f666665720000000000000000000000000000000000000000000000000000602082015250565b6000611a126026836114bc565b9150611a1d826119b6565b604082019050919050565b60006020820190508181036000830152611a4181611a05565b9050919050565b600069ffffffffffffffffffff82169050919050565b611a6781611a48565b8114611a7257600080fd5b50565b600081519050611a8481611a5e565b92915050565b611a9381611681565b8114611a9e57600080fd5b50565b600081519050611ab081611a8a565b92915050565b600080600080600060a08688031215611ad257611ad161111f565b5b6000611ae088828901611a75565b9550506020611af188828901611aa1565b9450506040611b028882890161163f565b9350506060611b138882890161163f565b9250506080611b2488828901611a75565b9150509295509295909350565b600081519050611b4081611136565b92915050565b600060208284031215611b5c57611b5b61111f565b5b6000611b6a84828501611b31565b91505092915050565b60008160011c9050919050565b6000808291508390505b6001851115611bca57808604811115611ba657611ba5611747565b5b6001851615611bb55780820291505b8081029050611bc385611b73565b9450611b8a565b94509492505050565b600082611be35760019050611c9f565b81611bf15760009050611c9f565b8160018114611c075760028114611c1157611c40565b6001915050611c9f565b60ff841115611c2357611c22611747565b5b8360020a915084821115611c3a57611c39611747565b5b50611c9f565b5060208310610133831016604e8410600b8410161715611c755782820a905083811115611c7057611c6f611747565b5b611c9f565b611c828484846001611b80565b92509050818404811115611c9957611c98611747565b5b81810290505b9392505050565b6000611cb18261118f565b9150611cbc83611129565b9250611ce97fffffffffffffffffffffffffffffffffffffffffffffffffffffffffffffffff8484611bd3565b905092915050565b6000611cfc82611681565b9150611d0783611681565b9250827f7fffffffffffffffffffffffffffffffffffffffffffffffffffffffffffffff0482116000841360008413161615611d4657611d45611747565b5b817f80000000000000000000000000000000000000000000000000000000000000000583126000841260008413161615611d8357611d82611747565b5b827f80000000000000000000000000000000000000000000000000000000000000000582126000841360008412161615611dc057611dbf611747565b5b827f7fffffffffffffffffffffffffffffffffffffffffffffffffffffffffffffff0582126000841260008412161615611dfd57611dfc611747565b5b828202905092915050565b6000611e1382611681565b9150611e1e83611681565b925082611e2e57611e2d6115a5565b5b600160000383147f800000000000000000000000000000000000000000000000000000000000000083141615611e6757611e66611747565b5b828205905092915050565b600061ffff82169050919050565b611e8981611e72565b82525050565b6000606082019050611ea46000830186611615565b611eb16020830185611e80565b611ebe6040830184611615565b949350505050565b600081519050919050565b600082825260208201905092915050565b60005b83811015611f00578082015181840152602081019050611ee5565b83811115611f0f576000848401525b50505050565b6000611f2082611ec6565b611f2a8185611ed1565b9350611f3a818560208601611ee2565b611f43816111ca565b840191505092915050565b6000606082019050611f6360008301866113ac565b611f706020830185611492565b8181036040830152611f828184611f15565b9050949350505050565b60008115159050919050565b611fa181611f8c565b8114611fac57600080fd5b50565b600081519050611fbe81611f98565b92915050565b600060208284031215611fda57611fd961111f565b5b6000611fe884828501611faf565b91505092915050565b7f4e6f206c696e6b206c65667420746f207472616e736665720000000000000000600082015250565b60006120276018836114bc565b915061203282611ff1565b602082019050919050565b600060208201905081810360008301526120568161201a565b9050919050565b600060408201905061207260008301856113ac565b61207f6020830184611492565b9392505050565b7f436f756c646e2774207472616e73666572204c494e4b00000000000000000000600082015250565b60006120bc6016836114bc565b91506120c782612086565b602082019050919050565b600060208201905081810360008301526120eb816120af565b9050919050565b60006120fd8261137a565b9050919050565b61210d816120f2565b82525050565b60006040820190506121286000830185611492565b6121356020830184612104565b939250505056fea26469706673582212206ff7fcb0ee0e97f40dc4d912bc8e32b2ce13040b96696b62e961e2f778afc68064736f6c63430008080033a26469706673582212201f26d961ec435718cc00d93fff032821196f3417741ec12ca45890e92851a32064736f6c63430008080033",
  "linkReferences": {},
  "deployedLinkReferences": {}
}