{"contracts/ETHtoLINKContract.sol":{"ETHtoLink":{"abi":[{"inputs":[],"stateMutability":"nonpayable","type":"constructor"},{"inputs":[],"name":"convertETHtoLINK","outputs":[],"stateMutability":"payable","type":"function"},{"inputs":[{"internalType":"uint256","name":"amount","type":"uint256"},{"internalType":"address payable","name":"reciever","type":"address"}],"name":"convertLINKtoETH","outputs":[],"stateMutability":"nonpayable","type":"function"},{"inputs":[],"name":"withdrawETH","outputs":[],"stateMutability":"nonpayable","type":"function"}],"evm":{"bytecode":{"linkReferences":{},"object":"60a060405234801561001057600080fd5b503373ffffffffffffffffffffffffffffffffffffffff1660808173ffffffffffffffffffffffffffffffffffffffff1660601b8152505060805160601c6110be61006d6000396000818161065701526106e701526110be6000f3fe6080604052600436106100345760003560e01c80636bd14c7f14610039578063c381bc1a14610062578063e086e5ec1461006c575b600080fd5b34801561004557600080fd5b50610060600480360381019061005b919061084b565b610083565b005b61006a610413565b005b34801561007857600080fd5b50610081610655565b005b8173326c977e6efc84e512bb9c30f76e30c160ed06fb73ffffffffffffffffffffffffffffffffffffffff1663dd62ed3e33306040518363ffffffff1660e01b81526004016100d39291906108ac565b60206040518083038186803b1580156100eb57600080fd5b505afa1580156100ff573d6000803e3d6000fd5b505050506040513d601f19601f8201168201806040525081019061012391906108ea565b1015610164576040517f08c379a000000000000000000000000000000000000000000000000000000000815260040161015b90610974565b60405180910390fd5b73326c977e6efc84e512bb9c30f76e30c160ed06fb73ffffffffffffffffffffffffffffffffffffffff166323b872dd3330856040518463ffffffff1660e01b81526004016101b5939291906109a3565b602060405180830381600087803b1580156101cf57600080fd5b505af11580156101e3573d6000803e3d6000fd5b505050506040513d601f19601f820116820180604052508101906102079190610a12565b50600073b4c4a493ab6356497713a78ffa6c60fb53517c6373ffffffffffffffffffffffffffffffffffffffff1663feaf968c6040518163ffffffff1660e01b815260040160a06040518083038186803b15801561026457600080fd5b505afa158015610278573d6000803e3d6000fd5b505050506040513d601f19601f8201168201806040525081019061029c9190610ab7565b505050915050600073b4c4a493ab6356497713a78ffa6c60fb53517c6373ffffffffffffffffffffffffffffffffffffffff1663313ce5676040518163ffffffff1660e01b815260040160206040518083038186803b1580156102fe57600080fd5b505afa158015610312573d6000803e3d6000fd5b505050506040513d601f19601f820116820180604052508101906103369190610b6b565b9050600081600a6103479190610cfa565b85846103539190610d45565b61035d9190610dce565b905060008473ffffffffffffffffffffffffffffffffffffffff168260405161038590610e30565b60006040518083038185875af1925050503d80600081146103c2576040519150601f19603f3d011682016040523d82523d6000602084013e6103c7565b606091505b505090508061040b576040517f08c379a000000000000000000000000000000000000000000000000000000000815260040161040290610e91565b60405180910390fd5b505050505050565b600073b4c4a493ab6356497713a78ffa6c60fb53517c6373ffffffffffffffffffffffffffffffffffffffff1663feaf968c6040518163ffffffff1660e01b815260040160a06040518083038186803b15801561046f57600080fd5b505afa158015610483573d6000803e3d6000fd5b505050506040513d601f19601f820116820180604052508101906104a79190610ab7565b505050915050600073b4c4a493ab6356497713a78ffa6c60fb53517c6373ffffffffffffffffffffffffffffffffffffffff1663313ce5676040518163ffffffff1660e01b815260040160206040518083038186803b15801561050957600080fd5b505afa15801561051d573d6000803e3d6000fd5b505050506040513d601f19601f820116820180604052508101906105419190610b6b565b90506000823483600a6105549190610cfa565b61055e9190610d45565b6105689190610eb1565b9050600073326c977e6efc84e512bb9c30f76e30c160ed06fb73ffffffffffffffffffffffffffffffffffffffff1663a9059cbb33846040518363ffffffff1660e01b81526004016105bb929190610f1b565b602060405180830381600087803b1580156105d557600080fd5b505af11580156105e9573d6000803e3d6000fd5b505050506040513d601f19601f8201168201806040525081019061060d9190610a12565b90508061064f576040517f08c379a000000000000000000000000000000000000000000000000000000000815260040161064690610f90565b60405180910390fd5b50505050565b7f000000000000000000000000000000000000000000000000000000000000000073ffffffffffffffffffffffffffffffffffffffff163373ffffffffffffffffffffffffffffffffffffffff16146106e3576040517f08c379a00000000000000000000000000000000000000000000000000000000081526004016106da90610ffc565b60405180910390fd5b60007f000000000000000000000000000000000000000000000000000000000000000073ffffffffffffffffffffffffffffffffffffffff164760405161072990610e30565b60006040518083038185875af1925050503d8060008114610766576040519150601f19603f3d011682016040523d82523d6000602084013e61076b565b606091505b50509050806107af576040517f08c379a00000000000000000000000000000000000000000000000000000000081526004016107a690611068565b60405180910390fd5b50565b600080fd5b6000819050919050565b6107ca816107b7565b81146107d557600080fd5b50565b6000813590506107e7816107c1565b92915050565b600073ffffffffffffffffffffffffffffffffffffffff82169050919050565b6000610818826107ed565b9050919050565b6108288161080d565b811461083357600080fd5b50565b6000813590506108458161081f565b92915050565b60008060408385031215610862576108616107b2565b5b6000610870858286016107d8565b925050602061088185828601610836565b9150509250929050565b6000610896826107ed565b9050919050565b6108a68161088b565b82525050565b60006040820190506108c1600083018561089d565b6108ce602083018461089d565b9392505050565b6000815190506108e4816107c1565b92915050565b600060208284031215610900576108ff6107b2565b5b600061090e848285016108d5565b91505092915050565b600082825260208201905092915050565b7f506c6561736520617070726f766520746f6b656e732066697273740000000000600082015250565b600061095e601b83610917565b915061096982610928565b602082019050919050565b6000602082019050818103600083015261098d81610951565b9050919050565b61099d816107b7565b82525050565b60006060820190506109b8600083018661089d565b6109c5602083018561089d565b6109d26040830184610994565b949350505050565b60008115159050919050565b6109ef816109da565b81146109fa57600080fd5b50565b600081519050610a0c816109e6565b92915050565b600060208284031215610a2857610a276107b2565b5b6000610a36848285016109fd565b91505092915050565b600069ffffffffffffffffffff82169050919050565b610a5e81610a3f565b8114610a6957600080fd5b50565b600081519050610a7b81610a55565b92915050565b6000819050919050565b610a9481610a81565b8114610a9f57600080fd5b50565b600081519050610ab181610a8b565b92915050565b600080600080600060a08688031215610ad357610ad26107b2565b5b6000610ae188828901610a6c565b9550506020610af288828901610aa2565b9450506040610b03888289016108d5565b9350506060610b14888289016108d5565b9250506080610b2588828901610a6c565b9150509295509295909350565b600060ff82169050919050565b610b4881610b32565b8114610b5357600080fd5b50565b600081519050610b6581610b3f565b92915050565b600060208284031215610b8157610b806107b2565b5b6000610b8f84828501610b56565b91505092915050565b7f4e487b7100000000000000000000000000000000000000000000000000000000600052601160045260246000fd5b60008160011c9050919050565b6000808291508390505b6001851115610c1e57808604811115610bfa57610bf9610b98565b5b6001851615610c095780820291505b8081029050610c1785610bc7565b9450610bde565b94509492505050565b600082610c375760019050610cf3565b81610c455760009050610cf3565b8160018114610c5b5760028114610c6557610c94565b6001915050610cf3565b60ff841115610c7757610c76610b98565b5b8360020a915084821115610c8e57610c8d610b98565b5b50610cf3565b5060208310610133831016604e8410600b8410161715610cc95782820a905083811115610cc457610cc3610b98565b5b610cf3565b610cd68484846001610bd4565b92509050818404811115610ced57610cec610b98565b5b81810290505b9392505050565b6000610d05826107b7565b9150610d1083610b32565b9250610d3d7fffffffffffffffffffffffffffffffffffffffffffffffffffffffffffffffff8484610c27565b905092915050565b6000610d50826107b7565b9150610d5b836107b7565b9250817fffffffffffffffffffffffffffffffffffffffffffffffffffffffffffffffff0483118215151615610d9457610d93610b98565b5b828202905092915050565b7f4e487b7100000000000000000000000000000000000000000000000000000000600052601260045260246000fd5b6000610dd9826107b7565b9150610de4836107b7565b925082610df457610df3610d9f565b5b828204905092915050565b600081905092915050565b50565b6000610e1a600083610dff565b9150610e2582610e0a565b600082019050919050565b6000610e3b82610e0d565b9150819050919050565b7f436f756c646e2774207472616e73666572204554480000000000000000000000600082015250565b6000610e7b601583610917565b9150610e8682610e45565b602082019050919050565b60006020820190508181036000830152610eaa81610e6e565b9050919050565b6000610ebc82610a81565b9150610ec783610a81565b925082610ed757610ed6610d9f565b5b600160000383147f800000000000000000000000000000000000000000000000000000000000000083141615610f1057610f0f610b98565b5b828205905092915050565b6000604082019050610f30600083018561089d565b610f3d6020830184610994565b9392505050565b7f436f756c646e74207472616e7366657220455448000000000000000000000000600082015250565b6000610f7a601483610917565b9150610f8582610f44565b602082019050919050565b60006020820190508181036000830152610fa981610f6d565b9050919050565b7f6f6e6c79206f776e65722063616e207769746864726177000000000000000000600082015250565b6000610fe6601783610917565b9150610ff182610fb0565b602082019050919050565b6000602082019050818103600083015261101581610fd9565b9050919050565b7f636f756c646e27742073656e7420657468000000000000000000000000000000600082015250565b6000611052601183610917565b915061105d8261101c565b602082019050919050565b6000602082019050818103600083015261108181611045565b905091905056fea2646970667358221220fa9b2d782636440674d29b510318fdbe3b1d4ead767f4231faca5b2de057c98f64736f6c63430008080033","opcodes":"PUSH1 0xA0 PUSH1 0x40 MSTORE CALLVALUE DUP1 ISZERO PUSH2 0x10 JUMPI PUSH1 0x0 DUP1 REVERT JUMPDEST POP CALLER PUSH20 0xFFFFFFFFFFFFFFFFFFFFFFFFFFFFFFFFFFFFFFFF AND PUSH1 0x80 DUP2 PUSH20 0xFFFFFFFFFFFFFFFFFFFFFFFFFFFFFFFFFFFFFFFF AND PUSH1 0x60 SHL DUP2 MSTORE POP POP PUSH1 0x80 MLOAD PUSH1 0x60 SHR PUSH2 0x10BE PUSH2 0x6D PUSH1 0x0 CODECOPY PUSH1 0x0 DUP2 DUP2 PUSH2 0x657 ADD MSTORE PUSH2 0x6E7 ADD MSTORE PUSH2 0x10BE PUSH1 0x0 RETURN INVALID PUSH1 0x80 PUSH1 0x40 MSTORE PUSH1 0x4 CALLDATASIZE LT PUSH2 0x34 JUMPI PUSH1 0x0 CALLDATALOAD PUSH1 0xE0 SHR DUP1 PUSH4 0x6BD14C7F EQ PUSH2 0x39 JUMPI DUP1 PUSH4 0xC381BC1A EQ PUSH2 0x62 JUMPI DUP1 PUSH4 0xE086E5EC EQ PUSH2 0x6C JUMPI JUMPDEST PUSH1 0x0 DUP1 REVERT JUMPDEST CALLVALUE DUP1 ISZERO PUSH2 0x45 JUMPI PUSH1 0x0 DUP1 REVERT JUMPDEST POP PUSH2 0x60 PUSH1 0x4 DUP1 CALLDATASIZE SUB DUP2 ADD SWAP1 PUSH2 0x5B SWAP2 SWAP1 PUSH2 0x84B JUMP JUMPDEST PUSH2 0x83 JUMP JUMPDEST STOP JUMPDEST PUSH2 0x6A PUSH2 0x413 JUMP JUMPDEST STOP JUMPDEST CALLVALUE DUP1 ISZERO PUSH2 0x78 JUMPI PUSH1 0x0 DUP1 REVERT JUMPDEST POP PUSH2 0x81 PUSH2 0x655 JUMP JUMPDEST STOP JUMPDEST DUP2 PUSH20 0x326C977E6EFC84E512BB9C30F76E30C160ED06FB PUSH20 0xFFFFFFFFFFFFFFFFFFFFFFFFFFFFFFFFFFFFFFFF AND PUSH4 0xDD62ED3E CALLER ADDRESS PUSH1 0x40 MLOAD DUP4 PUSH4 0xFFFFFFFF AND PUSH1 0xE0 SHL DUP2 MSTORE PUSH1 0x4 ADD PUSH2 0xD3 SWAP3 SWAP2 SWAP1 PUSH2 0x8AC JUMP JUMPDEST PUSH1 0x20 PUSH1 0x40 MLOAD DUP1 DUP4 SUB DUP2 DUP7 DUP1 EXTCODESIZE ISZERO DUP1 ISZERO PUSH2 0xEB JUMPI PUSH1 0x0 DUP1 REVERT JUMPDEST POP GAS STATICCALL ISZERO DUP1 ISZERO PUSH2 0xFF JUMPI RETURNDATASIZE PUSH1 0x0 DUP1 RETURNDATACOPY RETURNDATASIZE PUSH1 0x0 REVERT JUMPDEST POP POP POP POP PUSH1 0x40 MLOAD RETURNDATASIZE PUSH1 0x1F NOT PUSH1 0x1F DUP3 ADD AND DUP3 ADD DUP1 PUSH1 0x40 MSTORE POP DUP2 ADD SWAP1 PUSH2 0x123 SWAP2 SWAP1 PUSH2 0x8EA JUMP JUMPDEST LT ISZERO PUSH2 0x164 JUMPI PUSH1 0x40 MLOAD PUSH32 0x8C379A000000000000000000000000000000000000000000000000000000000 DUP2 MSTORE PUSH1 0x4 ADD PUSH2 0x15B SWAP1 PUSH2 0x974 JUMP JUMPDEST PUSH1 0x40 MLOAD DUP1 SWAP2 SUB SWAP1 REVERT JUMPDEST PUSH20 0x326C977E6EFC84E512BB9C30F76E30C160ED06FB PUSH20 0xFFFFFFFFFFFFFFFFFFFFFFFFFFFFFFFFFFFFFFFF AND PUSH4 0x23B872DD CALLER ADDRESS DUP6 PUSH1 0x40 MLOAD DUP5 PUSH4 0xFFFFFFFF AND PUSH1 0xE0 SHL DUP2 MSTORE PUSH1 0x4 ADD PUSH2 0x1B5 SWAP4 SWAP3 SWAP2 SWAP1 PUSH2 0x9A3 JUMP JUMPDEST PUSH1 0x20 PUSH1 0x40 MLOAD DUP1 DUP4 SUB DUP2 PUSH1 0x0 DUP8 DUP1 EXTCODESIZE ISZERO DUP1 ISZERO PUSH2 0x1CF JUMPI PUSH1 0x0 DUP1 REVERT JUMPDEST POP GAS CALL ISZERO DUP1 ISZERO PUSH2 0x1E3 JUMPI RETURNDATASIZE PUSH1 0x0 DUP1 RETURNDATACOPY RETURNDATASIZE PUSH1 0x0 REVERT JUMPDEST POP POP POP POP PUSH1 0x40 MLOAD RETURNDATASIZE PUSH1 0x1F NOT PUSH1 0x1F DUP3 ADD AND DUP3 ADD DUP1 PUSH1 0x40 MSTORE POP DUP2 ADD SWAP1 PUSH2 0x207 SWAP2 SWAP1 PUSH2 0xA12 JUMP JUMPDEST POP PUSH1 0x0 PUSH20 0xB4C4A493AB6356497713A78FFA6C60FB53517C63 PUSH20 0xFFFFFFFFFFFFFFFFFFFFFFFFFFFFFFFFFFFFFFFF AND PUSH4 0xFEAF968C PUSH1 0x40 MLOAD DUP2 PUSH4 0xFFFFFFFF AND PUSH1 0xE0 SHL DUP2 MSTORE PUSH1 0x4 ADD PUSH1 0xA0 PUSH1 0x40 MLOAD DUP1 DUP4 SUB DUP2 DUP7 DUP1 EXTCODESIZE ISZERO DUP1 ISZERO PUSH2 0x264 JUMPI PUSH1 0x0 DUP1 REVERT JUMPDEST POP GAS STATICCALL ISZERO DUP1 ISZERO PUSH2 0x278 JUMPI RETURNDATASIZE PUSH1 0x0 DUP1 RETURNDATACOPY RETURNDATASIZE PUSH1 0x0 REVERT JUMPDEST POP POP POP POP PUSH1 0x40 MLOAD RETURNDATASIZE PUSH1 0x1F NOT PUSH1 0x1F DUP3 ADD AND DUP3 ADD DUP1 PUSH1 0x40 MSTORE POP DUP2 ADD SWAP1 PUSH2 0x29C SWAP2 SWAP1 PUSH2 0xAB7 JUMP JUMPDEST POP POP POP SWAP2 POP POP PUSH1 0x0 PUSH20 0xB4C4A493AB6356497713A78FFA6C60FB53517C63 PUSH20 0xFFFFFFFFFFFFFFFFFFFFFFFFFFFFFFFFFFFFFFFF AND PUSH4 0x313CE567 PUSH1 0x40 MLOAD DUP2 PUSH4 0xFFFFFFFF AND PUSH1 0xE0 SHL DUP2 MSTORE PUSH1 0x4 ADD PUSH1 0x20 PUSH1 0x40 MLOAD DUP1 DUP4 SUB DUP2 DUP7 DUP1 EXTCODESIZE ISZERO DUP1 ISZERO PUSH2 0x2FE JUMPI PUSH1 0x0 DUP1 REVERT JUMPDEST POP GAS STATICCALL ISZERO DUP1 ISZERO PUSH2 0x312 JUMPI RETURNDATASIZE PUSH1 0x0 DUP1 RETURNDATACOPY RETURNDATASIZE PUSH1 0x0 REVERT JUMPDEST POP POP POP POP PUSH1 0x40 MLOAD RETURNDATASIZE PUSH1 0x1F NOT PUSH1 0x1F DUP3 ADD AND DUP3 ADD DUP1 PUSH1 0x40 MSTORE POP DUP2 ADD SWAP1 PUSH2 0x336 SWAP2 SWAP1 PUSH2 0xB6B JUMP JUMPDEST SWAP1 POP PUSH1 0x0 DUP2 PUSH1 0xA PUSH2 0x347 SWAP2 SWAP1 PUSH2 0xCFA JUMP JUMPDEST DUP6 DUP5 PUSH2 0x353 SWAP2 SWAP1 PUSH2 0xD45 JUMP JUMPDEST PUSH2 0x35D SWAP2 SWAP1 PUSH2 0xDCE JUMP JUMPDEST SWAP1 POP PUSH1 0x0 DUP5 PUSH20 0xFFFFFFFFFFFFFFFFFFFFFFFFFFFFFFFFFFFFFFFF AND DUP3 PUSH1 0x40 MLOAD PUSH2 0x385 SWAP1 PUSH2 0xE30 JUMP JUMPDEST PUSH1 0x0 PUSH1 0x40 MLOAD DUP1 DUP4 SUB DUP2 DUP6 DUP8 GAS CALL SWAP3 POP POP POP RETURNDATASIZE DUP1 PUSH1 0x0 DUP2 EQ PUSH2 0x3C2 JUMPI PUSH1 0x40 MLOAD SWAP2 POP PUSH1 0x1F NOT PUSH1 0x3F RETURNDATASIZE ADD AND DUP3 ADD PUSH1 0x40 MSTORE RETURNDATASIZE DUP3 MSTORE RETURNDATASIZE PUSH1 0x0 PUSH1 0x20 DUP5 ADD RETURNDATACOPY PUSH2 0x3C7 JUMP JUMPDEST PUSH1 0x60 SWAP2 POP JUMPDEST POP POP SWAP1 POP DUP1 PUSH2 0x40B JUMPI PUSH1 0x40 MLOAD PUSH32 0x8C379A000000000000000000000000000000000000000000000000000000000 DUP2 MSTORE PUSH1 0x4 ADD PUSH2 0x402 SWAP1 PUSH2 0xE91 JUMP JUMPDEST PUSH1 0x40 MLOAD DUP1 SWAP2 SUB SWAP1 REVERT JUMPDEST POP POP POP POP POP POP JUMP JUMPDEST PUSH1 0x0 PUSH20 0xB4C4A493AB6356497713A78FFA6C60FB53517C63 PUSH20 0xFFFFFFFFFFFFFFFFFFFFFFFFFFFFFFFFFFFFFFFF AND PUSH4 0xFEAF968C PUSH1 0x40 MLOAD DUP2 PUSH4 0xFFFFFFFF AND PUSH1 0xE0 SHL DUP2 MSTORE PUSH1 0x4 ADD PUSH1 0xA0 PUSH1 0x40 MLOAD DUP1 DUP4 SUB DUP2 DUP7 DUP1 EXTCODESIZE ISZERO DUP1 ISZERO PUSH2 0x46F JUMPI PUSH1 0x0 DUP1 REVERT JUMPDEST POP GAS STATICCALL ISZERO DUP1 ISZERO PUSH2 0x483 JUMPI RETURNDATASIZE PUSH1 0x0 DUP1 RETURNDATACOPY RETURNDATASIZE PUSH1 0x0 REVERT JUMPDEST POP POP POP POP PUSH1 0x40 MLOAD RETURNDATASIZE PUSH1 0x1F NOT PUSH1 0x1F DUP3 ADD AND DUP3 ADD DUP1 PUSH1 0x40 MSTORE POP DUP2 ADD SWAP1 PUSH2 0x4A7 SWAP2 SWAP1 PUSH2 0xAB7 JUMP JUMPDEST POP POP POP SWAP2 POP POP PUSH1 0x0 PUSH20 0xB4C4A493AB6356497713A78FFA6C60FB53517C63 PUSH20 0xFFFFFFFFFFFFFFFFFFFFFFFFFFFFFFFFFFFFFFFF AND PUSH4 0x313CE567 PUSH1 0x40 MLOAD DUP2 PUSH4 0xFFFFFFFF AND PUSH1 0xE0 SHL DUP2 MSTORE PUSH1 0x4 ADD PUSH1 0x20 PUSH1 0x40 MLOAD DUP1 DUP4 SUB DUP2 DUP7 DUP1 EXTCODESIZE ISZERO DUP1 ISZERO PUSH2 0x509 JUMPI PUSH1 0x0 DUP1 REVERT JUMPDEST POP GAS STATICCALL ISZERO DUP1 ISZERO PUSH2 0x51D JUMPI RETURNDATASIZE PUSH1 0x0 DUP1 RETURNDATACOPY RETURNDATASIZE PUSH1 0x0 REVERT JUMPDEST POP POP POP POP PUSH1 0x40 MLOAD RETURNDATASIZE PUSH1 0x1F NOT PUSH1 0x1F DUP3 ADD AND DUP3 ADD DUP1 PUSH1 0x40 MSTORE POP DUP2 ADD SWAP1 PUSH2 0x541 SWAP2 SWAP1 PUSH2 0xB6B JUMP JUMPDEST SWAP1 POP PUSH1 0x0 DUP3 CALLVALUE DUP4 PUSH1 0xA PUSH2 0x554 SWAP2 SWAP1 PUSH2 0xCFA JUMP JUMPDEST PUSH2 0x55E SWAP2 SWAP1 PUSH2 0xD45 JUMP JUMPDEST PUSH2 0x568 SWAP2 SWAP1 PUSH2 0xEB1 JUMP JUMPDEST SWAP1 POP PUSH1 0x0 PUSH20 0x326C977E6EFC84E512BB9C30F76E30C160ED06FB PUSH20 0xFFFFFFFFFFFFFFFFFFFFFFFFFFFFFFFFFFFFFFFF AND PUSH4 0xA9059CBB CALLER DUP5 PUSH1 0x40 MLOAD DUP4 PUSH4 0xFFFFFFFF AND PUSH1 0xE0 SHL DUP2 MSTORE PUSH1 0x4 ADD PUSH2 0x5BB SWAP3 SWAP2 SWAP1 PUSH2 0xF1B JUMP JUMPDEST PUSH1 0x20 PUSH1 0x40 MLOAD DUP1 DUP4 SUB DUP2 PUSH1 0x0 DUP8 DUP1 EXTCODESIZE ISZERO DUP1 ISZERO PUSH2 0x5D5 JUMPI PUSH1 0x0 DUP1 REVERT JUMPDEST POP GAS CALL ISZERO DUP1 ISZERO PUSH2 0x5E9 JUMPI RETURNDATASIZE PUSH1 0x0 DUP1 RETURNDATACOPY RETURNDATASIZE PUSH1 0x0 REVERT JUMPDEST POP POP POP POP PUSH1 0x40 MLOAD RETURNDATASIZE PUSH1 0x1F NOT PUSH1 0x1F DUP3 ADD AND DUP3 ADD DUP1 PUSH1 0x40 MSTORE POP DUP2 ADD SWAP1 PUSH2 0x60D SWAP2 SWAP1 PUSH2 0xA12 JUMP JUMPDEST SWAP1 POP DUP1 PUSH2 0x64F JUMPI PUSH1 0x40 MLOAD PUSH32 0x8C379A000000000000000000000000000000000000000000000000000000000 DUP2 MSTORE PUSH1 0x4 ADD PUSH2 0x646 SWAP1 PUSH2 0xF90 JUMP JUMPDEST PUSH1 0x40 MLOAD DUP1 SWAP2 SUB SWAP1 REVERT JUMPDEST POP POP POP POP JUMP JUMPDEST PUSH32 0x0 PUSH20 0xFFFFFFFFFFFFFFFFFFFFFFFFFFFFFFFFFFFFFFFF AND CALLER PUSH20 0xFFFFFFFFFFFFFFFFFFFFFFFFFFFFFFFFFFFFFFFF AND EQ PUSH2 0x6E3 JUMPI PUSH1 0x40 MLOAD PUSH32 0x8C379A000000000000000000000000000000000000000000000000000000000 DUP2 MSTORE PUSH1 0x4 ADD PUSH2 0x6DA SWAP1 PUSH2 0xFFC JUMP JUMPDEST PUSH1 0x40 MLOAD DUP1 SWAP2 SUB SWAP1 REVERT JUMPDEST PUSH1 0x0 PUSH32 0x0 PUSH20 0xFFFFFFFFFFFFFFFFFFFFFFFFFFFFFFFFFFFFFFFF AND SELFBALANCE PUSH1 0x40 MLOAD PUSH2 0x729 SWAP1 PUSH2 0xE30 JUMP JUMPDEST PUSH1 0x0 PUSH1 0x40 MLOAD DUP1 DUP4 SUB DUP2 DUP6 DUP8 GAS CALL SWAP3 POP POP POP RETURNDATASIZE DUP1 PUSH1 0x0 DUP2 EQ PUSH2 0x766 JUMPI PUSH1 0x40 MLOAD SWAP2 POP PUSH1 0x1F NOT PUSH1 0x3F RETURNDATASIZE ADD AND DUP3 ADD PUSH1 0x40 MSTORE RETURNDATASIZE DUP3 MSTORE RETURNDATASIZE PUSH1 0x0 PUSH1 0x20 DUP5 ADD RETURNDATACOPY PUSH2 0x76B JUMP JUMPDEST PUSH1 0x60 SWAP2 POP JUMPDEST POP POP SWAP1 POP DUP1 PUSH2 0x7AF JUMPI PUSH1 0x40 MLOAD PUSH32 0x8C379A000000000000000000000000000000000000000000000000000000000 DUP2 MSTORE PUSH1 0x4 ADD PUSH2 0x7A6 SWAP1 PUSH2 0x1068 JUMP JUMPDEST PUSH1 0x40 MLOAD DUP1 SWAP2 SUB SWAP1 REVERT JUMPDEST POP JUMP JUMPDEST PUSH1 0x0 DUP1 REVERT JUMPDEST PUSH1 0x0 DUP2 SWAP1 POP SWAP2 SWAP1 POP JUMP JUMPDEST PUSH2 0x7CA DUP2 PUSH2 0x7B7 JUMP JUMPDEST DUP2 EQ PUSH2 0x7D5 JUMPI PUSH1 0x0 DUP1 REVERT JUMPDEST POP JUMP JUMPDEST PUSH1 0x0 DUP2 CALLDATALOAD SWAP1 POP PUSH2 0x7E7 DUP2 PUSH2 0x7C1 JUMP JUMPDEST SWAP3 SWAP2 POP POP JUMP JUMPDEST PUSH1 0x0 PUSH20 0xFFFFFFFFFFFFFFFFFFFFFFFFFFFFFFFFFFFFFFFF DUP3 AND SWAP1 POP SWAP2 SWAP1 POP JUMP JUMPDEST PUSH1 0x0 PUSH2 0x818 DUP3 PUSH2 0x7ED JUMP JUMPDEST SWAP1 POP SWAP2 SWAP1 POP JUMP JUMPDEST PUSH2 0x828 DUP2 PUSH2 0x80D JUMP JUMPDEST DUP2 EQ PUSH2 0x833 JUMPI PUSH1 0x0 DUP1 REVERT JUMPDEST POP JUMP JUMPDEST PUSH1 0x0 DUP2 CALLDATALOAD SWAP1 POP PUSH2 0x845 DUP2 PUSH2 0x81F JUMP JUMPDEST SWAP3 SWAP2 POP POP JUMP JUMPDEST PUSH1 0x0 DUP1 PUSH1 0x40 DUP4 DUP6 SUB SLT ISZERO PUSH2 0x862 JUMPI PUSH2 0x861 PUSH2 0x7B2 JUMP JUMPDEST JUMPDEST PUSH1 0x0 PUSH2 0x870 DUP6 DUP3 DUP7 ADD PUSH2 0x7D8 JUMP JUMPDEST SWAP3 POP POP PUSH1 0x20 PUSH2 0x881 DUP6 DUP3 DUP7 ADD PUSH2 0x836 JUMP JUMPDEST SWAP2 POP POP SWAP3 POP SWAP3 SWAP1 POP JUMP JUMPDEST PUSH1 0x0 PUSH2 0x896 DUP3 PUSH2 0x7ED JUMP JUMPDEST SWAP1 POP SWAP2 SWAP1 POP JUMP JUMPDEST PUSH2 0x8A6 DUP2 PUSH2 0x88B JUMP JUMPDEST DUP3 MSTORE POP POP JUMP JUMPDEST PUSH1 0x0 PUSH1 0x40 DUP3 ADD SWAP1 POP PUSH2 0x8C1 PUSH1 0x0 DUP4 ADD DUP6 PUSH2 0x89D JUMP JUMPDEST PUSH2 0x8CE PUSH1 0x20 DUP4 ADD DUP5 PUSH2 0x89D JUMP JUMPDEST SWAP4 SWAP3 POP POP POP JUMP JUMPDEST PUSH1 0x0 DUP2 MLOAD SWAP1 POP PUSH2 0x8E4 DUP2 PUSH2 0x7C1 JUMP JUMPDEST SWAP3 SWAP2 POP POP JUMP JUMPDEST PUSH1 0x0 PUSH1 0x20 DUP3 DUP5 SUB SLT ISZERO PUSH2 0x900 JUMPI PUSH2 0x8FF PUSH2 0x7B2 JUMP JUMPDEST JUMPDEST PUSH1 0x0 PUSH2 0x90E DUP5 DUP3 DUP6 ADD PUSH2 0x8D5 JUMP JUMPDEST SWAP2 POP POP SWAP3 SWAP2 POP POP JUMP JUMPDEST PUSH1 0x0 DUP3 DUP3 MSTORE PUSH1 0x20 DUP3 ADD SWAP1 POP SWAP3 SWAP2 POP POP JUMP JUMPDEST PUSH32 0x506C6561736520617070726F766520746F6B656E732066697273740000000000 PUSH1 0x0 DUP3 ADD MSTORE POP JUMP JUMPDEST PUSH1 0x0 PUSH2 0x95E PUSH1 0x1B DUP4 PUSH2 0x917 JUMP JUMPDEST SWAP2 POP PUSH2 0x969 DUP3 PUSH2 0x928 JUMP JUMPDEST PUSH1 0x20 DUP3 ADD SWAP1 POP SWAP2 SWAP1 POP JUMP JUMPDEST PUSH1 0x0 PUSH1 0x20 DUP3 ADD SWAP1 POP DUP2 DUP2 SUB PUSH1 0x0 DUP4 ADD MSTORE PUSH2 0x98D DUP2 PUSH2 0x951 JUMP JUMPDEST SWAP1 POP SWAP2 SWAP1 POP JUMP JUMPDEST PUSH2 0x99D DUP2 PUSH2 0x7B7 JUMP JUMPDEST DUP3 MSTORE POP POP JUMP JUMPDEST PUSH1 0x0 PUSH1 0x60 DUP3 ADD SWAP1 POP PUSH2 0x9B8 PUSH1 0x0 DUP4 ADD DUP7 PUSH2 0x89D JUMP JUMPDEST PUSH2 0x9C5 PUSH1 0x20 DUP4 ADD DUP6 PUSH2 0x89D JUMP JUMPDEST PUSH2 0x9D2 PUSH1 0x40 DUP4 ADD DUP5 PUSH2 0x994 JUMP JUMPDEST SWAP5 SWAP4 POP POP POP POP JUMP JUMPDEST PUSH1 0x0 DUP2 ISZERO ISZERO SWAP1 POP SWAP2 SWAP1 POP JUMP JUMPDEST PUSH2 0x9EF DUP2 PUSH2 0x9DA JUMP JUMPDEST DUP2 EQ PUSH2 0x9FA JUMPI PUSH1 0x0 DUP1 REVERT JUMPDEST POP JUMP JUMPDEST PUSH1 0x0 DUP2 MLOAD SWAP1 POP PUSH2 0xA0C DUP2 PUSH2 0x9E6 JUMP JUMPDEST SWAP3 SWAP2 POP POP JUMP JUMPDEST PUSH1 0x0 PUSH1 0x20 DUP3 DUP5 SUB SLT ISZERO PUSH2 0xA28 JUMPI PUSH2 0xA27 PUSH2 0x7B2 JUMP JUMPDEST JUMPDEST PUSH1 0x0 PUSH2 0xA36 DUP5 DUP3 DUP6 ADD PUSH2 0x9FD JUMP JUMPDEST SWAP2 POP POP SWAP3 SWAP2 POP POP JUMP JUMPDEST PUSH1 0x0 PUSH10 0xFFFFFFFFFFFFFFFFFFFF DUP3 AND SWAP1 POP SWAP2 SWAP1 POP JUMP JUMPDEST PUSH2 0xA5E DUP2 PUSH2 0xA3F JUMP JUMPDEST DUP2 EQ PUSH2 0xA69 JUMPI PUSH1 0x0 DUP1 REVERT JUMPDEST POP JUMP JUMPDEST PUSH1 0x0 DUP2 MLOAD SWAP1 POP PUSH2 0xA7B DUP2 PUSH2 0xA55 JUMP JUMPDEST SWAP3 SWAP2 POP POP JUMP JUMPDEST PUSH1 0x0 DUP2 SWAP1 POP SWAP2 SWAP1 POP JUMP JUMPDEST PUSH2 0xA94 DUP2 PUSH2 0xA81 JUMP JUMPDEST DUP2 EQ PUSH2 0xA9F JUMPI PUSH1 0x0 DUP1 REVERT JUMPDEST POP JUMP JUMPDEST PUSH1 0x0 DUP2 MLOAD SWAP1 POP PUSH2 0xAB1 DUP2 PUSH2 0xA8B JUMP JUMPDEST SWAP3 SWAP2 POP POP JUMP JUMPDEST PUSH1 0x0 DUP1 PUSH1 0x0 DUP1 PUSH1 0x0 PUSH1 0xA0 DUP7 DUP9 SUB SLT ISZERO PUSH2 0xAD3 JUMPI PUSH2 0xAD2 PUSH2 0x7B2 JUMP JUMPDEST JUMPDEST PUSH1 0x0 PUSH2 0xAE1 DUP9 DUP3 DUP10 ADD PUSH2 0xA6C JUMP JUMPDEST SWAP6 POP POP PUSH1 0x20 PUSH2 0xAF2 DUP9 DUP3 DUP10 ADD PUSH2 0xAA2 JUMP JUMPDEST SWAP5 POP POP PUSH1 0x40 PUSH2 0xB03 DUP9 DUP3 DUP10 ADD PUSH2 0x8D5 JUMP JUMPDEST SWAP4 POP POP PUSH1 0x60 PUSH2 0xB14 DUP9 DUP3 DUP10 ADD PUSH2 0x8D5 JUMP JUMPDEST SWAP3 POP POP PUSH1 0x80 PUSH2 0xB25 DUP9 DUP3 DUP10 ADD PUSH2 0xA6C JUMP JUMPDEST SWAP2 POP POP SWAP3 SWAP6 POP SWAP3 SWAP6 SWAP1 SWAP4 POP JUMP JUMPDEST PUSH1 0x0 PUSH1 0xFF DUP3 AND SWAP1 POP SWAP2 SWAP1 POP JUMP JUMPDEST PUSH2 0xB48 DUP2 PUSH2 0xB32 JUMP JUMPDEST DUP2 EQ PUSH2 0xB53 JUMPI PUSH1 0x0 DUP1 REVERT JUMPDEST POP JUMP JUMPDEST PUSH1 0x0 DUP2 MLOAD SWAP1 POP PUSH2 0xB65 DUP2 PUSH2 0xB3F JUMP JUMPDEST SWAP3 SWAP2 POP POP JUMP JUMPDEST PUSH1 0x0 PUSH1 0x20 DUP3 DUP5 SUB SLT ISZERO PUSH2 0xB81 JUMPI PUSH2 0xB80 PUSH2 0x7B2 JUMP JUMPDEST JUMPDEST PUSH1 0x0 PUSH2 0xB8F DUP5 DUP3 DUP6 ADD PUSH2 0xB56 JUMP JUMPDEST SWAP2 POP POP SWAP3 SWAP2 POP POP JUMP JUMPDEST PUSH32 0x4E487B7100000000000000000000000000000000000000000000000000000000 PUSH1 0x0 MSTORE PUSH1 0x11 PUSH1 0x4 MSTORE PUSH1 0x24 PUSH1 0x0 REVERT JUMPDEST PUSH1 0x0 DUP2 PUSH1 0x1 SHR SWAP1 POP SWAP2 SWAP1 POP JUMP JUMPDEST PUSH1 0x0 DUP1 DUP3 SWAP2 POP DUP4 SWAP1 POP JUMPDEST PUSH1 0x1 DUP6 GT ISZERO PUSH2 0xC1E JUMPI DUP1 DUP7 DIV DUP2 GT ISZERO PUSH2 0xBFA JUMPI PUSH2 0xBF9 PUSH2 0xB98 JUMP JUMPDEST JUMPDEST PUSH1 0x1 DUP6 AND ISZERO PUSH2 0xC09 JUMPI DUP1 DUP3 MUL SWAP2 POP JUMPDEST DUP1 DUP2 MUL SWAP1 POP PUSH2 0xC17 DUP6 PUSH2 0xBC7 JUMP JUMPDEST SWAP5 POP PUSH2 0xBDE JUMP JUMPDEST SWAP5 POP SWAP5 SWAP3 POP POP POP JUMP JUMPDEST PUSH1 0x0 DUP3 PUSH2 0xC37 JUMPI PUSH1 0x1 SWAP1 POP PUSH2 0xCF3 JUMP JUMPDEST DUP2 PUSH2 0xC45 JUMPI PUSH1 0x0 SWAP1 POP PUSH2 0xCF3 JUMP JUMPDEST DUP2 PUSH1 0x1 DUP2 EQ PUSH2 0xC5B JUMPI PUSH1 0x2 DUP2 EQ PUSH2 0xC65 JUMPI PUSH2 0xC94 JUMP JUMPDEST PUSH1 0x1 SWAP2 POP POP PUSH2 0xCF3 JUMP JUMPDEST PUSH1 0xFF DUP5 GT ISZERO PUSH2 0xC77 JUMPI PUSH2 0xC76 PUSH2 0xB98 JUMP JUMPDEST JUMPDEST DUP4 PUSH1 0x2 EXP SWAP2 POP DUP5 DUP3 GT ISZERO PUSH2 0xC8E JUMPI PUSH2 0xC8D PUSH2 0xB98 JUMP JUMPDEST JUMPDEST POP PUSH2 0xCF3 JUMP JUMPDEST POP PUSH1 0x20 DUP4 LT PUSH2 0x133 DUP4 LT AND PUSH1 0x4E DUP5 LT PUSH1 0xB DUP5 LT AND OR ISZERO PUSH2 0xCC9 JUMPI DUP3 DUP3 EXP SWAP1 POP DUP4 DUP2 GT ISZERO PUSH2 0xCC4 JUMPI PUSH2 0xCC3 PUSH2 0xB98 JUMP JUMPDEST JUMPDEST PUSH2 0xCF3 JUMP JUMPDEST PUSH2 0xCD6 DUP5 DUP5 DUP5 PUSH1 0x1 PUSH2 0xBD4 JUMP JUMPDEST SWAP3 POP SWAP1 POP DUP2 DUP5 DIV DUP2 GT ISZERO PUSH2 0xCED JUMPI PUSH2 0xCEC PUSH2 0xB98 JUMP JUMPDEST JUMPDEST DUP2 DUP2 MUL SWAP1 POP JUMPDEST SWAP4 SWAP3 POP POP POP JUMP JUMPDEST PUSH1 0x0 PUSH2 0xD05 DUP3 PUSH2 0x7B7 JUMP JUMPDEST SWAP2 POP PUSH2 0xD10 DUP4 PUSH2 0xB32 JUMP JUMPDEST SWAP3 POP PUSH2 0xD3D PUSH32 0xFFFFFFFFFFFFFFFFFFFFFFFFFFFFFFFFFFFFFFFFFFFFFFFFFFFFFFFFFFFFFFFF DUP5 DUP5 PUSH2 0xC27 JUMP JUMPDEST SWAP1 POP SWAP3 SWAP2 POP POP JUMP JUMPDEST PUSH1 0x0 PUSH2 0xD50 DUP3 PUSH2 0x7B7 JUMP JUMPDEST SWAP2 POP PUSH2 0xD5B DUP4 PUSH2 0x7B7 JUMP JUMPDEST SWAP3 POP DUP2 PUSH32 0xFFFFFFFFFFFFFFFFFFFFFFFFFFFFFFFFFFFFFFFFFFFFFFFFFFFFFFFFFFFFFFFF DIV DUP4 GT DUP3 ISZERO ISZERO AND ISZERO PUSH2 0xD94 JUMPI PUSH2 0xD93 PUSH2 0xB98 JUMP JUMPDEST JUMPDEST DUP3 DUP3 MUL SWAP1 POP SWAP3 SWAP2 POP POP JUMP JUMPDEST PUSH32 0x4E487B7100000000000000000000000000000000000000000000000000000000 PUSH1 0x0 MSTORE PUSH1 0x12 PUSH1 0x4 MSTORE PUSH1 0x24 PUSH1 0x0 REVERT JUMPDEST PUSH1 0x0 PUSH2 0xDD9 DUP3 PUSH2 0x7B7 JUMP JUMPDEST SWAP2 POP PUSH2 0xDE4 DUP4 PUSH2 0x7B7 JUMP JUMPDEST SWAP3 POP DUP3 PUSH2 0xDF4 JUMPI PUSH2 0xDF3 PUSH2 0xD9F JUMP JUMPDEST JUMPDEST DUP3 DUP3 DIV SWAP1 POP SWAP3 SWAP2 POP POP JUMP JUMPDEST PUSH1 0x0 DUP2 SWAP1 POP SWAP3 SWAP2 POP POP JUMP JUMPDEST POP JUMP JUMPDEST PUSH1 0x0 PUSH2 0xE1A PUSH1 0x0 DUP4 PUSH2 0xDFF JUMP JUMPDEST SWAP2 POP PUSH2 0xE25 DUP3 PUSH2 0xE0A JUMP JUMPDEST PUSH1 0x0 DUP3 ADD SWAP1 POP SWAP2 SWAP1 POP JUMP JUMPDEST PUSH1 0x0 PUSH2 0xE3B DUP3 PUSH2 0xE0D JUMP JUMPDEST SWAP2 POP DUP2 SWAP1 POP SWAP2 SWAP1 POP JUMP JUMPDEST PUSH32 0x436F756C646E2774207472616E73666572204554480000000000000000000000 PUSH1 0x0 DUP3 ADD MSTORE POP JUMP JUMPDEST PUSH1 0x0 PUSH2 0xE7B PUSH1 0x15 DUP4 PUSH2 0x917 JUMP JUMPDEST SWAP2 POP PUSH2 0xE86 DUP3 PUSH2 0xE45 JUMP JUMPDEST PUSH1 0x20 DUP3 ADD SWAP1 POP SWAP2 SWAP1 POP JUMP JUMPDEST PUSH1 0x0 PUSH1 0x20 DUP3 ADD SWAP1 POP DUP2 DUP2 SUB PUSH1 0x0 DUP4 ADD MSTORE PUSH2 0xEAA DUP2 PUSH2 0xE6E JUMP JUMPDEST SWAP1 POP SWAP2 SWAP1 POP JUMP JUMPDEST PUSH1 0x0 PUSH2 0xEBC DUP3 PUSH2 0xA81 JUMP JUMPDEST SWAP2 POP PUSH2 0xEC7 DUP4 PUSH2 0xA81 JUMP JUMPDEST SWAP3 POP DUP3 PUSH2 0xED7 JUMPI PUSH2 0xED6 PUSH2 0xD9F JUMP JUMPDEST JUMPDEST PUSH1 0x1 PUSH1 0x0 SUB DUP4 EQ PUSH32 0x8000000000000000000000000000000000000000000000000000000000000000 DUP4 EQ AND ISZERO PUSH2 0xF10 JUMPI PUSH2 0xF0F PUSH2 0xB98 JUMP JUMPDEST JUMPDEST DUP3 DUP3 SDIV SWAP1 POP SWAP3 SWAP2 POP POP JUMP JUMPDEST PUSH1 0x0 PUSH1 0x40 DUP3 ADD SWAP1 POP PUSH2 0xF30 PUSH1 0x0 DUP4 ADD DUP6 PUSH2 0x89D JUMP JUMPDEST PUSH2 0xF3D PUSH1 0x20 DUP4 ADD DUP5 PUSH2 0x994 JUMP JUMPDEST SWAP4 SWAP3 POP POP POP JUMP JUMPDEST PUSH32 0x436F756C646E74207472616E7366657220455448000000000000000000000000 PUSH1 0x0 DUP3 ADD MSTORE POP JUMP JUMPDEST PUSH1 0x0 PUSH2 0xF7A PUSH1 0x14 DUP4 PUSH2 0x917 JUMP JUMPDEST SWAP2 POP PUSH2 0xF85 DUP3 PUSH2 0xF44 JUMP JUMPDEST PUSH1 0x20 DUP3 ADD SWAP1 POP SWAP2 SWAP1 POP JUMP JUMPDEST PUSH1 0x0 PUSH1 0x20 DUP3 ADD SWAP1 POP DUP2 DUP2 SUB PUSH1 0x0 DUP4 ADD MSTORE PUSH2 0xFA9 DUP2 PUSH2 0xF6D JUMP JUMPDEST SWAP1 POP SWAP2 SWAP1 POP JUMP JUMPDEST PUSH32 0x6F6E6C79206F776E65722063616E207769746864726177000000000000000000 PUSH1 0x0 DUP3 ADD MSTORE POP JUMP JUMPDEST PUSH1 0x0 PUSH2 0xFE6 PUSH1 0x17 DUP4 PUSH2 0x917 JUMP JUMPDEST SWAP2 POP PUSH2 0xFF1 DUP3 PUSH2 0xFB0 JUMP JUMPDEST PUSH1 0x20 DUP3 ADD SWAP1 POP SWAP2 SWAP1 POP JUMP JUMPDEST PUSH1 0x0 PUSH1 0x20 DUP3 ADD SWAP1 POP DUP2 DUP2 SUB PUSH1 0x0 DUP4 ADD MSTORE PUSH2 0x1015 DUP2 PUSH2 0xFD9 JUMP JUMPDEST SWAP1 POP SWAP2 SWAP1 POP JUMP JUMPDEST PUSH32 0x636F756C646E27742073656E7420657468000000000000000000000000000000 PUSH1 0x0 DUP3 ADD MSTORE POP JUMP JUMPDEST PUSH1 0x0 PUSH2 0x1052 PUSH1 0x11 DUP4 PUSH2 0x917 JUMP JUMPDEST SWAP2 POP PUSH2 0x105D DUP3 PUSH2 0x101C JUMP JUMPDEST PUSH1 0x20 DUP3 ADD SWAP1 POP SWAP2 SWAP1 POP JUMP JUMPDEST PUSH1 0x0 PUSH1 0x20 DUP3 ADD SWAP1 POP DUP2 DUP2 SUB PUSH1 0x0 DUP4 ADD MSTORE PUSH2 0x1081 DUP2 PUSH2 0x1045 JUMP JUMPDEST SWAP1 POP SWAP2 SWAP1 POP JUMP INVALID LOG2 PUSH5 0x6970667358 0x22 SLT KECCAK256 STATICCALL SWAP12 0x2D PUSH25 0x2636440674D29B510318FDBE3B1D4EAD767F4231FACA5B2DE0 JUMPI 0xC9 DUP16 PUSH5 0x736F6C6343 STOP ADDMOD ADDMOD STOP CALLER "},"methodIdentifiers":{"convertETHtoLINK()":"c381bc1a","convertLINKtoETH(uint256,address)":"6bd14c7f","withdrawETH()":"e086e5ec"}}}}}