{"contracts/GambleContract.sol":{"GambleContract":{"abi":[{"inputs":[{"internalType":"address","name":"offerMaker","type":"address"},{"internalType":"uint256","name":"offerAmount","type":"uint256"}],"stateMutability":"payable","type":"constructor"},{"anonymous":false,"inputs":[{"indexed":false,"internalType":"int256","name":"neededLinkTokens","type":"int256"}],"name":"neededLink","type":"event"},{"anonymous":false,"inputs":[{"indexed":false,"internalType":"uint256","name":"reqprice","type":"uint256"}],"name":"requestingLINK","type":"event"},{"inputs":[],"name":"cancelOffer","outputs":[],"stateMutability":"nonpayable","type":"function"},{"inputs":[{"internalType":"uint8","name":"guess","type":"uint8"}],"name":"enterGamble","outputs":[],"stateMutability":"payable","type":"function"},{"inputs":[{"internalType":"uint256","name":"","type":"uint256"},{"internalType":"uint256[]","name":"randomWords","type":"uint256[]"}],"name":"fulfillRandomWords","outputs":[],"stateMutability":"nonpayable","type":"function"},{"inputs":[{"internalType":"uint256","name":"_requestId","type":"uint256"},{"internalType":"uint256[]","name":"_randomWords","type":"uint256[]"}],"name":"rawFulfillRandomWords","outputs":[],"stateMutability":"nonpayable","type":"function"},{"inputs":[],"name":"viewGambler","outputs":[{"internalType":"address","name":"","type":"address"}],"stateMutability":"view","type":"function"},{"inputs":[],"name":"viewGuess","outputs":[{"internalType":"uint8","name":"","type":"uint8"}],"stateMutability":"view","type":"function"},{"inputs":[],"name":"viewOfferAmount","outputs":[{"internalType":"uint256","name":"","type":"uint256"}],"stateMutability":"view","type":"function"},{"inputs":[],"name":"viewOfferMaker","outputs":[{"internalType":"address","name":"","type":"address"}],"stateMutability":"view","type":"function"},{"inputs":[],"name":"viewState","outputs":[{"internalType":"enum GambleContract.gambleStates","name":"","type":"uint8"}],"stateMutability":"view","type":"function"},{"inputs":[],"name":"viewWinner","outputs":[{"internalType":"address","name":"","type":"address"}],"stateMutability":"view","type":"function"}],"evm":{"bytecode":{"linkReferences":{},"object":"60c06040526040516200237038038062002370833981810160405281019062000029919062000143565b8173ffffffffffffffffffffffffffffffffffffffff1660808173ffffffffffffffffffffffffffffffffffffffff1660601b815250508060a081815250506000600160146101000a81548160ff021916908360038111156200009157620000906200018a565b5b02179055505050620001b9565b600080fd5b600073ffffffffffffffffffffffffffffffffffffffff82169050919050565b6000620000d082620000a3565b9050919050565b620000e281620000c3565b8114620000ee57600080fd5b50565b6000815190506200010281620000d7565b92915050565b6000819050919050565b6200011d8162000108565b81146200012957600080fd5b50565b6000815190506200013d8162000112565b92915050565b600080604083850312156200015d576200015c6200009e565b5b60006200016d85828601620000f1565b925050602062000180858286016200012c565b9150509250929050565b7f4e487b7100000000000000000000000000000000000000000000000000000000600052602160045260246000fd5b60805160601c60a051612172620001fe600039600081816102950152610a1601526000818161062801528181610859015281816108e90152610a3e01526121726000f3fe6080604052600436106100915760003560e01c806362d05c781161005957806362d05c781461015a578063801f3961146101715780639c2f9c9b1461019c578063b2e2e539146101c7578063b9d91ad6146101f257610091565b806304a81f5d146100965780631fe543e3146100b257806338ba4614146100db578063392e2403146101045780633fc4f30b1461012f575b600080fd5b6100b060048036038101906100ab9190611162565b61021d565b005b3480156100be57600080fd5b506100d960048036038101906100d4919061131e565b6104ea565b005b3480156100e757600080fd5b5061010260048036038101906100fd919061131e565b61057a565b005b34801561011057600080fd5b5061011961078f565b60405161012691906113bb565b60405180910390f35b34801561013b57600080fd5b5061014461082e565b60405161015191906113bb565b60405180910390f35b34801561016657600080fd5b5061016f610857565b005b34801561017d57600080fd5b506101866109e5565b604051610193919061144d565b60405180910390f35b3480156101a857600080fd5b506101b16109fc565b6040516101be9190611477565b60405180910390f35b3480156101d357600080fd5b506101dc610a12565b6040516101e991906114a1565b60405180910390f35b3480156101fe57600080fd5b50610207610a3a565b60405161021491906113bb565b60405180910390f35b60006003811115610231576102306113d6565b5b600160149054906101000a900460ff166003811115610253576102526113d6565b5b14610293576040517f08c379a000000000000000000000000000000000000000000000000000000000815260040161028a90611519565b60405180910390fd5b7f00000000000000000000000000000000000000000000000000000000000000003410156102f6576040517f08c379a00000000000000000000000000000000000000000000000000000000081526004016102ed90611585565b60405180910390fd5b336000806101000a81548173ffffffffffffffffffffffffffffffffffffffff021916908373ffffffffffffffffffffffffffffffffffffffff16021790555060028161034391906115d4565b600060146101000a81548160ff021916908360ff160217905550600073708701a1dff4f478de54383e49a627ed4852c81673ffffffffffffffffffffffffffffffffffffffff16634306d35462017ed06040518263ffffffff1660e01b81526004016103af9190611624565b60206040518083038186803b1580156103c757600080fd5b505afa1580156103db573d6000803e3d6000fd5b505050506040513d601f19601f820116820180604052508101906103ff9190611654565b90507f191f47d7ba3f4f88d19e9319b7f1de020d2b991853e6141d8245adf92a8b080e81604051610430919061169a565b60405180910390a1600061044382610a62565b905080341015610488576040517f08c379a000000000000000000000000000000000000000000000000000000000815260040161047f90611727565b60405180910390fd5b662386f26fc100008161049b9190611776565b90506104a681610bc5565b60006104b862017ed060036001610c3d565b905060018060146101000a81548160ff021916908360038111156104df576104de6113d6565b5b021790555050505050565b73708701a1dff4f478de54383e49a627ed4852c81673ffffffffffffffffffffffffffffffffffffffff163373ffffffffffffffffffffffffffffffffffffffff161461056c576040517f08c379a000000000000000000000000000000000000000000000000000000000815260040161056390611818565b60405180910390fd5b610576828261057a565b5050565b600060028260008151811061059257610591611838565b5b60200260200101516105a49190611867565b9050600060149054906101000a900460ff1660ff168114156106265760008054906101000a900473ffffffffffffffffffffffffffffffffffffffff16600160006101000a81548173ffffffffffffffffffffffffffffffffffffffff021916908373ffffffffffffffffffffffffffffffffffffffff160217905550610688565b7f0000000000000000000000000000000000000000000000000000000000000000600160006101000a81548173ffffffffffffffffffffffffffffffffffffffff021916908373ffffffffffffffffffffffffffffffffffffffff1602179055505b6000600160009054906101000a900473ffffffffffffffffffffffffffffffffffffffff1673ffffffffffffffffffffffffffffffffffffffff16476040516106d0906118c9565b60006040518083038185875af1925050503d806000811461070d576040519150601f19603f3d011682016040523d82523d6000602084013e610712565b606091505b5050905080610756576040517f08c379a000000000000000000000000000000000000000000000000000000000815260040161074d9061192a565b60405180910390fd5b6003600160146101000a81548160ff0219169083600381111561077c5761077b6113d6565b5b0217905550610789610e91565b50505050565b60006003808111156107a4576107a36113d6565b5b600160149054906101000a900460ff1660038111156107c6576107c56113d6565b5b14610806576040517f08c379a00000000000000000000000000000000000000000000000000000000081526004016107fd90611996565b60405180910390fd5b600160009054906101000a900473ffffffffffffffffffffffffffffffffffffffff16905090565b60008060009054906101000a900473ffffffffffffffffffffffffffffffffffffffff16905090565b7f000000000000000000000000000000000000000000000000000000000000000073ffffffffffffffffffffffffffffffffffffffff163373ffffffffffffffffffffffffffffffffffffffff16146108e5576040517f08c379a00000000000000000000000000000000000000000000000000000000081526004016108dc90611a28565b60405180910390fd5b60007f0000000000000000000000000000000000000000000000000000000000000000905060008173ffffffffffffffffffffffffffffffffffffffff1647604051610930906118c9565b60006040518083038185875af1925050503d806000811461096d576040519150601f19603f3d011682016040523d82523d6000602084013e610972565b606091505b50509050806109b6576040517f08c379a00000000000000000000000000000000000000000000000000000000081526004016109ad9061192a565b60405180910390fd5b6002600160146101000a81548160ff021916908360038111156109dc576109db6113d6565b5b02179055505050565b6000600160149054906101000a900460ff16905090565b60008060149054906101000a900460ff16905090565b60007f0000000000000000000000000000000000000000000000000000000000000000905090565b60007f0000000000000000000000000000000000000000000000000000000000000000905090565b60008073b4c4a493ab6356497713a78ffa6c60fb53517c6373ffffffffffffffffffffffffffffffffffffffff1663feaf968c6040518163ffffffff1660e01b815260040160a06040518083038186803b158015610abf57600080fd5b505afa158015610ad3573d6000803e3d6000fd5b505050506040513d601f19601f82011682018060405250810190610af79190611ab6565b505050915050600073b4c4a493ab6356497713a78ffa6c60fb53517c6373ffffffffffffffffffffffffffffffffffffffff1663313ce5676040518163ffffffff1660e01b815260040160206040518083038186803b158015610b5957600080fd5b505afa158015610b6d573d6000803e3d6000fd5b505050506040513d601f19601f82011682018060405250810190610b919190611b46565b9050600081600a610ba29190611ca6565b8584610bae9190611cf1565b610bb89190611e08565b9050809350505050919050565b73373cac07be6a672ba1e91d982f2f7959f1813f6873ffffffffffffffffffffffffffffffffffffffff1663c381bc1a826040518263ffffffff1660e01b81526004016000604051808303818588803b158015610c2157600080fd5b505af1158015610c35573d6000803e3d6000fd5b505050505050565b60008073708701a1dff4f478de54383e49a627ed4852c81673ffffffffffffffffffffffffffffffffffffffff16634306d354866040518263ffffffff1660e01b8152600401610c8d9190611624565b60206040518083038186803b158015610ca557600080fd5b505afa158015610cb9573d6000803e3d6000fd5b505050506040513d601f19601f82011682018060405250810190610cdd9190611654565b90507f9ba824a825ba160b072ef594e0b2d8a64c834aa76e938ebdfb294f0ad3254e1d81604051610d0e91906114a1565b60405180910390a1600073326c977e6efc84e512bb9c30f76e30c160ed06fb73ffffffffffffffffffffffffffffffffffffffff16634000aea073708701a1dff4f478de54383e49a627ed4852c81684898989604051602001610d7393929190611e8f565b6040516020818303038152906040526040518463ffffffff1660e01b8152600401610da093929190611f4e565b602060405180830381600087803b158015610dba57600080fd5b505af1158015610dce573d6000803e3d6000fd5b505050506040513d601f19601f82011682018060405250810190610df29190611fc4565b905073708701a1dff4f478de54383e49a627ed4852c81673ffffffffffffffffffffffffffffffffffffffff1663fc2a88c36040518163ffffffff1660e01b815260040160206040518083038186803b158015610e4e57600080fd5b505afa158015610e62573d6000803e3d6000fd5b505050506040513d601f19601f82011682018060405250810190610e869190611654565b925050509392505050565b600073326c977e6efc84e512bb9c30f76e30c160ed06fb73ffffffffffffffffffffffffffffffffffffffff166370a08231306040518263ffffffff1660e01b8152600401610ee091906113bb565b60206040518083038186803b158015610ef857600080fd5b505afa158015610f0c573d6000803e3d6000fd5b505050506040513d601f19601f82011682018060405250810190610f309190611654565b905060008111610f75576040517f08c379a0000000000000000000000000000000000000000000000000000000008152600401610f6c9061203d565b60405180910390fd5b600073326c977e6efc84e512bb9c30f76e30c160ed06fb73ffffffffffffffffffffffffffffffffffffffff1663095ea7b373373cac07be6a672ba1e91d982f2f7959f1813f68846040518363ffffffff1660e01b8152600401610fda92919061205d565b602060405180830381600087803b158015610ff457600080fd5b505af1158015611008573d6000803e3d6000fd5b505050506040513d601f19601f8201168201806040525081019061102c9190611fc4565b90508061106e576040517f08c379a0000000000000000000000000000000000000000000000000000000008152600401611065906120d2565b60405180910390fd5b73373cac07be6a672ba1e91d982f2f7959f1813f6873ffffffffffffffffffffffffffffffffffffffff16636bd14c7f83600160009054906101000a900473ffffffffffffffffffffffffffffffffffffffff166040518363ffffffff1660e01b81526004016110df929190612113565b600060405180830381600087803b1580156110f957600080fd5b505af115801561110d573d6000803e3d6000fd5b505050505050565b6000604051905090565b600080fd5b600080fd5b600060ff82169050919050565b61113f81611129565b811461114a57600080fd5b50565b60008135905061115c81611136565b92915050565b6000602082840312156111785761117761111f565b5b60006111868482850161114d565b91505092915050565b6000819050919050565b6111a28161118f565b81146111ad57600080fd5b50565b6000813590506111bf81611199565b92915050565b600080fd5b6000601f19601f8301169050919050565b7f4e487b7100000000000000000000000000000000000000000000000000000000600052604160045260246000fd5b611213826111ca565b810181811067ffffffffffffffff82111715611232576112316111db565b5b80604052505050565b6000611245611115565b9050611251828261120a565b919050565b600067ffffffffffffffff821115611271576112706111db565b5b602082029050602081019050919050565b600080fd5b600061129a61129584611256565b61123b565b905080838252602082019050602084028301858111156112bd576112bc611282565b5b835b818110156112e657806112d288826111b0565b8452602084019350506020810190506112bf565b5050509392505050565b600082601f830112611305576113046111c5565b5b8135611315848260208601611287565b91505092915050565b600080604083850312156113355761133461111f565b5b6000611343858286016111b0565b925050602083013567ffffffffffffffff81111561136457611363611124565b5b611370858286016112f0565b9150509250929050565b600073ffffffffffffffffffffffffffffffffffffffff82169050919050565b60006113a58261137a565b9050919050565b6113b58161139a565b82525050565b60006020820190506113d060008301846113ac565b92915050565b7f4e487b7100000000000000000000000000000000000000000000000000000000600052602160045260246000fd5b60048110611416576114156113d6565b5b50565b600081905061142782611405565b919050565b600061143782611419565b9050919050565b6114478161142c565b82525050565b6000602082019050611462600083018461143e565b92915050565b61147181611129565b82525050565b600060208201905061148c6000830184611468565b92915050565b61149b8161118f565b82525050565b60006020820190506114b66000830184611492565b92915050565b600082825260208201905092915050565b7f47616d626c65206f66666572206973206e6f74206f70656e20616e796d6f7265600082015250565b60006115036020836114bc565b915061150e826114cd565b602082019050919050565b60006020820190508181036000830152611532816114f6565b9050919050565b7f70617920656e6f75676820616d6f756e74000000000000000000000000000000600082015250565b600061156f6011836114bc565b915061157a82611539565b602082019050919050565b6000602082019050818103600083015261159e81611562565b9050919050565b7f4e487b7100000000000000000000000000000000000000000000000000000000600052601260045260246000fd5b60006115df82611129565b91506115ea83611129565b9250826115fa576115f96115a5565b5b828206905092915050565b600063ffffffff82169050919050565b61161e81611605565b82525050565b60006020820190506116396000830184611615565b92915050565b60008151905061164e81611199565b92915050565b60006020828403121561166a5761166961111f565b5b60006116788482850161163f565b91505092915050565b6000819050919050565b61169481611681565b82525050565b60006020820190506116af600083018461168b565b92915050565b7f6e6f20757365206f662067616d626c696e672e2e2e6d6f6e65792077696c6c2060008201527f676f20666f722076726600000000000000000000000000000000000000000000602082015250565b6000611711602a836114bc565b915061171c826116b5565b604082019050919050565b6000602082019050818103600083015261174081611704565b9050919050565b7f4e487b7100000000000000000000000000000000000000000000000000000000600052601160045260246000fd5b60006117818261118f565b915061178c8361118f565b9250827fffffffffffffffffffffffffffffffffffffffffffffffffffffffffffffffff038211156117c1576117c0611747565b5b828201905092915050565b7f6f6e6c792056524620563220777261707065722063616e2066756c66696c6c00600082015250565b6000611802601f836114bc565b915061180d826117cc565b602082019050919050565b60006020820190508181036000830152611831816117f5565b9050919050565b7f4e487b7100000000000000000000000000000000000000000000000000000000600052603260045260246000fd5b60006118728261118f565b915061187d8361118f565b92508261188d5761188c6115a5565b5b828206905092915050565b600081905092915050565b50565b60006118b3600083611898565b91506118be826118a3565b600082019050919050565b60006118d4826118a6565b9150819050919050565b7f4554482063616e74206265207472616e73666572726564000000000000000000600082015250565b60006119146017836114bc565b915061191f826118de565b602082019050919050565b6000602082019050818103600083015261194381611907565b9050919050565b7f57696e6e657220686173206e6f7420796574206265656e20666f756e64000000600082015250565b6000611980601d836114bc565b915061198b8261194a565b602082019050919050565b600060208201905081810360008301526119af81611973565b9050919050565b7f4f6e6c79206f66666572206d616b65722063616e2063616e63656c207468697360008201527f206f666665720000000000000000000000000000000000000000000000000000602082015250565b6000611a126026836114bc565b9150611a1d826119b6565b604082019050919050565b60006020820190508181036000830152611a4181611a05565b9050919050565b600069ffffffffffffffffffff82169050919050565b611a6781611a48565b8114611a7257600080fd5b50565b600081519050611a8481611a5e565b92915050565b611a9381611681565b8114611a9e57600080fd5b50565b600081519050611ab081611a8a565b92915050565b600080600080600060a08688031215611ad257611ad161111f565b5b6000611ae088828901611a75565b9550506020611af188828901611aa1565b9450506040611b028882890161163f565b9350506060611b138882890161163f565b9250506080611b2488828901611a75565b9150509295509295909350565b600081519050611b4081611136565b92915050565b600060208284031215611b5c57611b5b61111f565b5b6000611b6a84828501611b31565b91505092915050565b60008160011c9050919050565b6000808291508390505b6001851115611bca57808604811115611ba657611ba5611747565b5b6001851615611bb55780820291505b8081029050611bc385611b73565b9450611b8a565b94509492505050565b600082611be35760019050611c9f565b81611bf15760009050611c9f565b8160018114611c075760028114611c1157611c40565b6001915050611c9f565b60ff841115611c2357611c22611747565b5b8360020a915084821115611c3a57611c39611747565b5b50611c9f565b5060208310610133831016604e8410600b8410161715611c755782820a905083811115611c7057611c6f611747565b5b611c9f565b611c828484846001611b80565b92509050818404811115611c9957611c98611747565b5b81810290505b9392505050565b6000611cb18261118f565b9150611cbc83611129565b9250611ce97fffffffffffffffffffffffffffffffffffffffffffffffffffffffffffffffff8484611bd3565b905092915050565b6000611cfc82611681565b9150611d0783611681565b9250827f7fffffffffffffffffffffffffffffffffffffffffffffffffffffffffffffff0482116000841360008413161615611d4657611d45611747565b5b817f80000000000000000000000000000000000000000000000000000000000000000583126000841260008413161615611d8357611d82611747565b5b827f80000000000000000000000000000000000000000000000000000000000000000582126000841360008412161615611dc057611dbf611747565b5b827f7fffffffffffffffffffffffffffffffffffffffffffffffffffffffffffffff0582126000841260008412161615611dfd57611dfc611747565b5b828202905092915050565b6000611e1382611681565b9150611e1e83611681565b925082611e2e57611e2d6115a5565b5b600160000383147f800000000000000000000000000000000000000000000000000000000000000083141615611e6757611e66611747565b5b828205905092915050565b600061ffff82169050919050565b611e8981611e72565b82525050565b6000606082019050611ea46000830186611615565b611eb16020830185611e80565b611ebe6040830184611615565b949350505050565b600081519050919050565b600082825260208201905092915050565b60005b83811015611f00578082015181840152602081019050611ee5565b83811115611f0f576000848401525b50505050565b6000611f2082611ec6565b611f2a8185611ed1565b9350611f3a818560208601611ee2565b611f43816111ca565b840191505092915050565b6000606082019050611f6360008301866113ac565b611f706020830185611492565b8181036040830152611f828184611f15565b9050949350505050565b60008115159050919050565b611fa181611f8c565b8114611fac57600080fd5b50565b600081519050611fbe81611f98565b92915050565b600060208284031215611fda57611fd961111f565b5b6000611fe884828501611faf565b91505092915050565b7f4e6f206c696e6b206c65667420746f207472616e736665720000000000000000600082015250565b60006120276018836114bc565b915061203282611ff1565b602082019050919050565b600060208201905081810360008301526120568161201a565b9050919050565b600060408201905061207260008301856113ac565b61207f6020830184611492565b9392505050565b7f436f756c646e2774207472616e73666572204c494e4b00000000000000000000600082015250565b60006120bc6016836114bc565b91506120c782612086565b602082019050919050565b600060208201905081810360008301526120eb816120af565b9050919050565b60006120fd8261137a565b9050919050565b61210d816120f2565b82525050565b60006040820190506121286000830185611492565b6121356020830184612104565b939250505056fea26469706673582212206ff7fcb0ee0e97f40dc4d912bc8e32b2ce13040b96696b62e961e2f778afc68064736f6c63430008080033","opcodes":"PUSH1 0xC0 PUSH1 0x40 MSTORE PUSH1 0x40 MLOAD PUSH3 0x2370 CODESIZE SUB DUP1 PUSH3 0x2370 DUP4 CODECOPY DUP2 DUP2 ADD PUSH1 0x40 MSTORE DUP2 ADD SWAP1 PUSH3 0x29 SWAP2 SWAP1 PUSH3 0x143 JUMP JUMPDEST DUP2 PUSH20 0xFFFFFFFFFFFFFFFFFFFFFFFFFFFFFFFFFFFFFFFF AND PUSH1 0x80 DUP2 PUSH20 0xFFFFFFFFFFFFFFFFFFFFFFFFFFFFFFFFFFFFFFFF AND PUSH1 0x60 SHL DUP2 MSTORE POP POP DUP1 PUSH1 0xA0 DUP2 DUP2 MSTORE POP POP PUSH1 0x0 PUSH1 0x1 PUSH1 0x14 PUSH2 0x100 EXP DUP2 SLOAD DUP2 PUSH1 0xFF MUL NOT AND SWAP1 DUP4 PUSH1 0x3 DUP2 GT ISZERO PUSH3 0x91 JUMPI PUSH3 0x90 PUSH3 0x18A JUMP JUMPDEST JUMPDEST MUL OR SWAP1 SSTORE POP POP POP PUSH3 0x1B9 JUMP JUMPDEST PUSH1 0x0 DUP1 REVERT JUMPDEST PUSH1 0x0 PUSH20 0xFFFFFFFFFFFFFFFFFFFFFFFFFFFFFFFFFFFFFFFF DUP3 AND SWAP1 POP SWAP2 SWAP1 POP JUMP JUMPDEST PUSH1 0x0 PUSH3 0xD0 DUP3 PUSH3 0xA3 JUMP JUMPDEST SWAP1 POP SWAP2 SWAP1 POP JUMP JUMPDEST PUSH3 0xE2 DUP2 PUSH3 0xC3 JUMP JUMPDEST DUP2 EQ PUSH3 0xEE JUMPI PUSH1 0x0 DUP1 REVERT JUMPDEST POP JUMP JUMPDEST PUSH1 0x0 DUP2 MLOAD SWAP1 POP PUSH3 0x102 DUP2 PUSH3 0xD7 JUMP JUMPDEST SWAP3 SWAP2 POP POP JUMP JUMPDEST PUSH1 0x0 DUP2 SWAP1 POP SWAP2 SWAP1 POP JUMP JUMPDEST PUSH3 0x11D DUP2 PUSH3 0x108 JUMP JUMPDEST DUP2 EQ PUSH3 0x129 JUMPI PUSH1 0x0 DUP1 REVERT JUMPDEST POP JUMP JUMPDEST PUSH1 0x0 DUP2 MLOAD SWAP1 POP PUSH3 0x13D DUP2 PUSH3 0x112 JUMP JUMPDEST SWAP3 SWAP2 POP POP JUMP JUMPDEST PUSH1 0x0 DUP1 PUSH1 0x40 DUP4 DUP6 SUB SLT ISZERO PUSH3 0x15D JUMPI PUSH3 0x15C PUSH3 0x9E JUMP JUMPDEST JUMPDEST PUSH1 0x0 PUSH3 0x16D DUP6 DUP3 DUP7 ADD PUSH3 0xF1 JUMP JUMPDEST SWAP3 POP POP PUSH1 0x20 PUSH3 0x180 DUP6 DUP3 DUP7 ADD PUSH3 0x12C JUMP JUMPDEST SWAP2 POP POP SWAP3 POP SWAP3 SWAP1 POP JUMP JUMPDEST PUSH32 0x4E487B7100000000000000000000000000000000000000000000000000000000 PUSH1 0x0 MSTORE PUSH1 0x21 PUSH1 0x4 MSTORE PUSH1 0x24 PUSH1 0x0 REVERT JUMPDEST PUSH1 0x80 MLOAD PUSH1 0x60 SHR PUSH1 0xA0 MLOAD PUSH2 0x2172 PUSH3 0x1FE PUSH1 0x0 CODECOPY PUSH1 0x0 DUP2 DUP2 PUSH2 0x295 ADD MSTORE PUSH2 0xA16 ADD MSTORE PUSH1 0x0 DUP2 DUP2 PUSH2 0x628 ADD MSTORE DUP2 DUP2 PUSH2 0x859 ADD MSTORE DUP2 DUP2 PUSH2 0x8E9 ADD MSTORE PUSH2 0xA3E ADD MSTORE PUSH2 0x2172 PUSH1 0x0 RETURN INVALID PUSH1 0x80 PUSH1 0x40 MSTORE PUSH1 0x4 CALLDATASIZE LT PUSH2 0x91 JUMPI PUSH1 0x0 CALLDATALOAD PUSH1 0xE0 SHR DUP1 PUSH4 0x62D05C78 GT PUSH2 0x59 JUMPI DUP1 PUSH4 0x62D05C78 EQ PUSH2 0x15A JUMPI DUP1 PUSH4 0x801F3961 EQ PUSH2 0x171 JUMPI DUP1 PUSH4 0x9C2F9C9B EQ PUSH2 0x19C JUMPI DUP1 PUSH4 0xB2E2E539 EQ PUSH2 0x1C7 JUMPI DUP1 PUSH4 0xB9D91AD6 EQ PUSH2 0x1F2 JUMPI PUSH2 0x91 JUMP JUMPDEST DUP1 PUSH4 0x4A81F5D EQ PUSH2 0x96 JUMPI DUP1 PUSH4 0x1FE543E3 EQ PUSH2 0xB2 JUMPI DUP1 PUSH4 0x38BA4614 EQ PUSH2 0xDB JUMPI DUP1 PUSH4 0x392E2403 EQ PUSH2 0x104 JUMPI DUP1 PUSH4 0x3FC4F30B EQ PUSH2 0x12F JUMPI JUMPDEST PUSH1 0x0 DUP1 REVERT JUMPDEST PUSH2 0xB0 PUSH1 0x4 DUP1 CALLDATASIZE SUB DUP2 ADD SWAP1 PUSH2 0xAB SWAP2 SWAP1 PUSH2 0x1162 JUMP JUMPDEST PUSH2 0x21D JUMP JUMPDEST STOP JUMPDEST CALLVALUE DUP1 ISZERO PUSH2 0xBE JUMPI PUSH1 0x0 DUP1 REVERT JUMPDEST POP PUSH2 0xD9 PUSH1 0x4 DUP1 CALLDATASIZE SUB DUP2 ADD SWAP1 PUSH2 0xD4 SWAP2 SWAP1 PUSH2 0x131E JUMP JUMPDEST PUSH2 0x4EA JUMP JUMPDEST STOP JUMPDEST CALLVALUE DUP1 ISZERO PUSH2 0xE7 JUMPI PUSH1 0x0 DUP1 REVERT JUMPDEST POP PUSH2 0x102 PUSH1 0x4 DUP1 CALLDATASIZE SUB DUP2 ADD SWAP1 PUSH2 0xFD SWAP2 SWAP1 PUSH2 0x131E JUMP JUMPDEST PUSH2 0x57A JUMP JUMPDEST STOP JUMPDEST CALLVALUE DUP1 ISZERO PUSH2 0x110 JUMPI PUSH1 0x0 DUP1 REVERT JUMPDEST POP PUSH2 0x119 PUSH2 0x78F JUMP JUMPDEST PUSH1 0x40 MLOAD PUSH2 0x126 SWAP2 SWAP1 PUSH2 0x13BB JUMP JUMPDEST PUSH1 0x40 MLOAD DUP1 SWAP2 SUB SWAP1 RETURN JUMPDEST CALLVALUE DUP1 ISZERO PUSH2 0x13B JUMPI PUSH1 0x0 DUP1 REVERT JUMPDEST POP PUSH2 0x144 PUSH2 0x82E JUMP JUMPDEST PUSH1 0x40 MLOAD PUSH2 0x151 SWAP2 SWAP1 PUSH2 0x13BB JUMP JUMPDEST PUSH1 0x40 MLOAD DUP1 SWAP2 SUB SWAP1 RETURN JUMPDEST CALLVALUE DUP1 ISZERO PUSH2 0x166 JUMPI PUSH1 0x0 DUP1 REVERT JUMPDEST POP PUSH2 0x16F PUSH2 0x857 JUMP JUMPDEST STOP JUMPDEST CALLVALUE DUP1 ISZERO PUSH2 0x17D JUMPI PUSH1 0x0 DUP1 REVERT JUMPDEST POP PUSH2 0x186 PUSH2 0x9E5 JUMP JUMPDEST PUSH1 0x40 MLOAD PUSH2 0x193 SWAP2 SWAP1 PUSH2 0x144D JUMP JUMPDEST PUSH1 0x40 MLOAD DUP1 SWAP2 SUB SWAP1 RETURN JUMPDEST CALLVALUE DUP1 ISZERO PUSH2 0x1A8 JUMPI PUSH1 0x0 DUP1 REVERT JUMPDEST POP PUSH2 0x1B1 PUSH2 0x9FC JUMP JUMPDEST PUSH1 0x40 MLOAD PUSH2 0x1BE SWAP2 SWAP1 PUSH2 0x1477 JUMP JUMPDEST PUSH1 0x40 MLOAD DUP1 SWAP2 SUB SWAP1 RETURN JUMPDEST CALLVALUE DUP1 ISZERO PUSH2 0x1D3 JUMPI PUSH1 0x0 DUP1 REVERT JUMPDEST POP PUSH2 0x1DC PUSH2 0xA12 JUMP JUMPDEST PUSH1 0x40 MLOAD PUSH2 0x1E9 SWAP2 SWAP1 PUSH2 0x14A1 JUMP JUMPDEST PUSH1 0x40 MLOAD DUP1 SWAP2 SUB SWAP1 RETURN JUMPDEST CALLVALUE DUP1 ISZERO PUSH2 0x1FE JUMPI PUSH1 0x0 DUP1 REVERT JUMPDEST POP PUSH2 0x207 PUSH2 0xA3A JUMP JUMPDEST PUSH1 0x40 MLOAD PUSH2 0x214 SWAP2 SWAP1 PUSH2 0x13BB JUMP JUMPDEST PUSH1 0x40 MLOAD DUP1 SWAP2 SUB SWAP1 RETURN JUMPDEST PUSH1 0x0 PUSH1 0x3 DUP2 GT ISZERO PUSH2 0x231 JUMPI PUSH2 0x230 PUSH2 0x13D6 JUMP JUMPDEST JUMPDEST PUSH1 0x1 PUSH1 0x14 SWAP1 SLOAD SWAP1 PUSH2 0x100 EXP SWAP1 DIV PUSH1 0xFF AND PUSH1 0x3 DUP2 GT ISZERO PUSH2 0x253 JUMPI PUSH2 0x252 PUSH2 0x13D6 JUMP JUMPDEST JUMPDEST EQ PUSH2 0x293 JUMPI PUSH1 0x40 MLOAD PUSH32 0x8C379A000000000000000000000000000000000000000000000000000000000 DUP2 MSTORE PUSH1 0x4 ADD PUSH2 0x28A SWAP1 PUSH2 0x1519 JUMP JUMPDEST PUSH1 0x40 MLOAD DUP1 SWAP2 SUB SWAP1 REVERT JUMPDEST PUSH32 0x0 CALLVALUE LT ISZERO PUSH2 0x2F6 JUMPI PUSH1 0x40 MLOAD PUSH32 0x8C379A000000000000000000000000000000000000000000000000000000000 DUP2 MSTORE PUSH1 0x4 ADD PUSH2 0x2ED SWAP1 PUSH2 0x1585 JUMP JUMPDEST PUSH1 0x40 MLOAD DUP1 SWAP2 SUB SWAP1 REVERT JUMPDEST CALLER PUSH1 0x0 DUP1 PUSH2 0x100 EXP DUP2 SLOAD DUP2 PUSH20 0xFFFFFFFFFFFFFFFFFFFFFFFFFFFFFFFFFFFFFFFF MUL NOT AND SWAP1 DUP4 PUSH20 0xFFFFFFFFFFFFFFFFFFFFFFFFFFFFFFFFFFFFFFFF AND MUL OR SWAP1 SSTORE POP PUSH1 0x2 DUP2 PUSH2 0x343 SWAP2 SWAP1 PUSH2 0x15D4 JUMP JUMPDEST PUSH1 0x0 PUSH1 0x14 PUSH2 0x100 EXP DUP2 SLOAD DUP2 PUSH1 0xFF MUL NOT AND SWAP1 DUP4 PUSH1 0xFF AND MUL OR SWAP1 SSTORE POP PUSH1 0x0 PUSH20 0x708701A1DFF4F478DE54383E49A627ED4852C816 PUSH20 0xFFFFFFFFFFFFFFFFFFFFFFFFFFFFFFFFFFFFFFFF AND PUSH4 0x4306D354 PUSH3 0x17ED0 PUSH1 0x40 MLOAD DUP3 PUSH4 0xFFFFFFFF AND PUSH1 0xE0 SHL DUP2 MSTORE PUSH1 0x4 ADD PUSH2 0x3AF SWAP2 SWAP1 PUSH2 0x1624 JUMP JUMPDEST PUSH1 0x20 PUSH1 0x40 MLOAD DUP1 DUP4 SUB DUP2 DUP7 DUP1 EXTCODESIZE ISZERO DUP1 ISZERO PUSH2 0x3C7 JUMPI PUSH1 0x0 DUP1 REVERT JUMPDEST POP GAS STATICCALL ISZERO DUP1 ISZERO PUSH2 0x3DB JUMPI RETURNDATASIZE PUSH1 0x0 DUP1 RETURNDATACOPY RETURNDATASIZE PUSH1 0x0 REVERT JUMPDEST POP POP POP POP PUSH1 0x40 MLOAD RETURNDATASIZE PUSH1 0x1F NOT PUSH1 0x1F DUP3 ADD AND DUP3 ADD DUP1 PUSH1 0x40 MSTORE POP DUP2 ADD SWAP1 PUSH2 0x3FF SWAP2 SWAP1 PUSH2 0x1654 JUMP JUMPDEST SWAP1 POP PUSH32 0x191F47D7BA3F4F88D19E9319B7F1DE020D2B991853E6141D8245ADF92A8B080E DUP2 PUSH1 0x40 MLOAD PUSH2 0x430 SWAP2 SWAP1 PUSH2 0x169A JUMP JUMPDEST PUSH1 0x40 MLOAD DUP1 SWAP2 SUB SWAP1 LOG1 PUSH1 0x0 PUSH2 0x443 DUP3 PUSH2 0xA62 JUMP JUMPDEST SWAP1 POP DUP1 CALLVALUE LT ISZERO PUSH2 0x488 JUMPI PUSH1 0x40 MLOAD PUSH32 0x8C379A000000000000000000000000000000000000000000000000000000000 DUP2 MSTORE PUSH1 0x4 ADD PUSH2 0x47F SWAP1 PUSH2 0x1727 JUMP JUMPDEST PUSH1 0x40 MLOAD DUP1 SWAP2 SUB SWAP1 REVERT JUMPDEST PUSH7 0x2386F26FC10000 DUP2 PUSH2 0x49B SWAP2 SWAP1 PUSH2 0x1776 JUMP JUMPDEST SWAP1 POP PUSH2 0x4A6 DUP2 PUSH2 0xBC5 JUMP JUMPDEST PUSH1 0x0 PUSH2 0x4B8 PUSH3 0x17ED0 PUSH1 0x3 PUSH1 0x1 PUSH2 0xC3D JUMP JUMPDEST SWAP1 POP PUSH1 0x1 DUP1 PUSH1 0x14 PUSH2 0x100 EXP DUP2 SLOAD DUP2 PUSH1 0xFF MUL NOT AND SWAP1 DUP4 PUSH1 0x3 DUP2 GT ISZERO PUSH2 0x4DF JUMPI PUSH2 0x4DE PUSH2 0x13D6 JUMP JUMPDEST JUMPDEST MUL OR SWAP1 SSTORE POP POP POP POP POP JUMP JUMPDEST PUSH20 0x708701A1DFF4F478DE54383E49A627ED4852C816 PUSH20 0xFFFFFFFFFFFFFFFFFFFFFFFFFFFFFFFFFFFFFFFF AND CALLER PUSH20 0xFFFFFFFFFFFFFFFFFFFFFFFFFFFFFFFFFFFFFFFF AND EQ PUSH2 0x56C JUMPI PUSH1 0x40 MLOAD PUSH32 0x8C379A000000000000000000000000000000000000000000000000000000000 DUP2 MSTORE PUSH1 0x4 ADD PUSH2 0x563 SWAP1 PUSH2 0x1818 JUMP JUMPDEST PUSH1 0x40 MLOAD DUP1 SWAP2 SUB SWAP1 REVERT JUMPDEST PUSH2 0x576 DUP3 DUP3 PUSH2 0x57A JUMP JUMPDEST POP POP JUMP JUMPDEST PUSH1 0x0 PUSH1 0x2 DUP3 PUSH1 0x0 DUP2 MLOAD DUP2 LT PUSH2 0x592 JUMPI PUSH2 0x591 PUSH2 0x1838 JUMP JUMPDEST JUMPDEST PUSH1 0x20 MUL PUSH1 0x20 ADD ADD MLOAD PUSH2 0x5A4 SWAP2 SWAP1 PUSH2 0x1867 JUMP JUMPDEST SWAP1 POP PUSH1 0x0 PUSH1 0x14 SWAP1 SLOAD SWAP1 PUSH2 0x100 EXP SWAP1 DIV PUSH1 0xFF AND PUSH1 0xFF AND DUP2 EQ ISZERO PUSH2 0x626 JUMPI PUSH1 0x0 DUP1 SLOAD SWAP1 PUSH2 0x100 EXP SWAP1 DIV PUSH20 0xFFFFFFFFFFFFFFFFFFFFFFFFFFFFFFFFFFFFFFFF AND PUSH1 0x1 PUSH1 0x0 PUSH2 0x100 EXP DUP2 SLOAD DUP2 PUSH20 0xFFFFFFFFFFFFFFFFFFFFFFFFFFFFFFFFFFFFFFFF MUL NOT AND SWAP1 DUP4 PUSH20 0xFFFFFFFFFFFFFFFFFFFFFFFFFFFFFFFFFFFFFFFF AND MUL OR SWAP1 SSTORE POP PUSH2 0x688 JUMP JUMPDEST PUSH32 0x0 PUSH1 0x1 PUSH1 0x0 PUSH2 0x100 EXP DUP2 SLOAD DUP2 PUSH20 0xFFFFFFFFFFFFFFFFFFFFFFFFFFFFFFFFFFFFFFFF MUL NOT AND SWAP1 DUP4 PUSH20 0xFFFFFFFFFFFFFFFFFFFFFFFFFFFFFFFFFFFFFFFF AND MUL OR SWAP1 SSTORE POP JUMPDEST PUSH1 0x0 PUSH1 0x1 PUSH1 0x0 SWAP1 SLOAD SWAP1 PUSH2 0x100 EXP SWAP1 DIV PUSH20 0xFFFFFFFFFFFFFFFFFFFFFFFFFFFFFFFFFFFFFFFF AND PUSH20 0xFFFFFFFFFFFFFFFFFFFFFFFFFFFFFFFFFFFFFFFF AND SELFBALANCE PUSH1 0x40 MLOAD PUSH2 0x6D0 SWAP1 PUSH2 0x18C9 JUMP JUMPDEST PUSH1 0x0 PUSH1 0x40 MLOAD DUP1 DUP4 SUB DUP2 DUP6 DUP8 GAS CALL SWAP3 POP POP POP RETURNDATASIZE DUP1 PUSH1 0x0 DUP2 EQ PUSH2 0x70D JUMPI PUSH1 0x40 MLOAD SWAP2 POP PUSH1 0x1F NOT PUSH1 0x3F RETURNDATASIZE ADD AND DUP3 ADD PUSH1 0x40 MSTORE RETURNDATASIZE DUP3 MSTORE RETURNDATASIZE PUSH1 0x0 PUSH1 0x20 DUP5 ADD RETURNDATACOPY PUSH2 0x712 JUMP JUMPDEST PUSH1 0x60 SWAP2 POP JUMPDEST POP POP SWAP1 POP DUP1 PUSH2 0x756 JUMPI PUSH1 0x40 MLOAD PUSH32 0x8C379A000000000000000000000000000000000000000000000000000000000 DUP2 MSTORE PUSH1 0x4 ADD PUSH2 0x74D SWAP1 PUSH2 0x192A JUMP JUMPDEST PUSH1 0x40 MLOAD DUP1 SWAP2 SUB SWAP1 REVERT JUMPDEST PUSH1 0x3 PUSH1 0x1 PUSH1 0x14 PUSH2 0x100 EXP DUP2 SLOAD DUP2 PUSH1 0xFF MUL NOT AND SWAP1 DUP4 PUSH1 0x3 DUP2 GT ISZERO PUSH2 0x77C JUMPI PUSH2 0x77B PUSH2 0x13D6 JUMP JUMPDEST JUMPDEST MUL OR SWAP1 SSTORE POP PUSH2 0x789 PUSH2 0xE91 JUMP JUMPDEST POP POP POP POP JUMP JUMPDEST PUSH1 0x0 PUSH1 0x3 DUP1 DUP2 GT ISZERO PUSH2 0x7A4 JUMPI PUSH2 0x7A3 PUSH2 0x13D6 JUMP JUMPDEST JUMPDEST PUSH1 0x1 PUSH1 0x14 SWAP1 SLOAD SWAP1 PUSH2 0x100 EXP SWAP1 DIV PUSH1 0xFF AND PUSH1 0x3 DUP2 GT ISZERO PUSH2 0x7C6 JUMPI PUSH2 0x7C5 PUSH2 0x13D6 JUMP JUMPDEST JUMPDEST EQ PUSH2 0x806 JUMPI PUSH1 0x40 MLOAD PUSH32 0x8C379A000000000000000000000000000000000000000000000000000000000 DUP2 MSTORE PUSH1 0x4 ADD PUSH2 0x7FD SWAP1 PUSH2 0x1996 JUMP JUMPDEST PUSH1 0x40 MLOAD DUP1 SWAP2 SUB SWAP1 REVERT JUMPDEST PUSH1 0x1 PUSH1 0x0 SWAP1 SLOAD SWAP1 PUSH2 0x100 EXP SWAP1 DIV PUSH20 0xFFFFFFFFFFFFFFFFFFFFFFFFFFFFFFFFFFFFFFFF AND SWAP1 POP SWAP1 JUMP JUMPDEST PUSH1 0x0 DUP1 PUSH1 0x0 SWAP1 SLOAD SWAP1 PUSH2 0x100 EXP SWAP1 DIV PUSH20 0xFFFFFFFFFFFFFFFFFFFFFFFFFFFFFFFFFFFFFFFF AND SWAP1 POP SWAP1 JUMP JUMPDEST PUSH32 0x0 PUSH20 0xFFFFFFFFFFFFFFFFFFFFFFFFFFFFFFFFFFFFFFFF AND CALLER PUSH20 0xFFFFFFFFFFFFFFFFFFFFFFFFFFFFFFFFFFFFFFFF AND EQ PUSH2 0x8E5 JUMPI PUSH1 0x40 MLOAD PUSH32 0x8C379A000000000000000000000000000000000000000000000000000000000 DUP2 MSTORE PUSH1 0x4 ADD PUSH2 0x8DC SWAP1 PUSH2 0x1A28 JUMP JUMPDEST PUSH1 0x40 MLOAD DUP1 SWAP2 SUB SWAP1 REVERT JUMPDEST PUSH1 0x0 PUSH32 0x0 SWAP1 POP PUSH1 0x0 DUP2 PUSH20 0xFFFFFFFFFFFFFFFFFFFFFFFFFFFFFFFFFFFFFFFF AND SELFBALANCE PUSH1 0x40 MLOAD PUSH2 0x930 SWAP1 PUSH2 0x18C9 JUMP JUMPDEST PUSH1 0x0 PUSH1 0x40 MLOAD DUP1 DUP4 SUB DUP2 DUP6 DUP8 GAS CALL SWAP3 POP POP POP RETURNDATASIZE DUP1 PUSH1 0x0 DUP2 EQ PUSH2 0x96D JUMPI PUSH1 0x40 MLOAD SWAP2 POP PUSH1 0x1F NOT PUSH1 0x3F RETURNDATASIZE ADD AND DUP3 ADD PUSH1 0x40 MSTORE RETURNDATASIZE DUP3 MSTORE RETURNDATASIZE PUSH1 0x0 PUSH1 0x20 DUP5 ADD RETURNDATACOPY PUSH2 0x972 JUMP JUMPDEST PUSH1 0x60 SWAP2 POP JUMPDEST POP POP SWAP1 POP DUP1 PUSH2 0x9B6 JUMPI PUSH1 0x40 MLOAD PUSH32 0x8C379A000000000000000000000000000000000000000000000000000000000 DUP2 MSTORE PUSH1 0x4 ADD PUSH2 0x9AD SWAP1 PUSH2 0x192A JUMP JUMPDEST PUSH1 0x40 MLOAD DUP1 SWAP2 SUB SWAP1 REVERT JUMPDEST PUSH1 0x2 PUSH1 0x1 PUSH1 0x14 PUSH2 0x100 EXP DUP2 SLOAD DUP2 PUSH1 0xFF MUL NOT AND SWAP1 DUP4 PUSH1 0x3 DUP2 GT ISZERO PUSH2 0x9DC JUMPI PUSH2 0x9DB PUSH2 0x13D6 JUMP JUMPDEST JUMPDEST MUL OR SWAP1 SSTORE POP POP POP JUMP JUMPDEST PUSH1 0x0 PUSH1 0x1 PUSH1 0x14 SWAP1 SLOAD SWAP1 PUSH2 0x100 EXP SWAP1 DIV PUSH1 0xFF AND SWAP1 POP SWAP1 JUMP JUMPDEST PUSH1 0x0 DUP1 PUSH1 0x14 SWAP1 SLOAD SWAP1 PUSH2 0x100 EXP SWAP1 DIV PUSH1 0xFF AND SWAP1 POP SWAP1 JUMP JUMPDEST PUSH1 0x0 PUSH32 0x0 SWAP1 POP SWAP1 JUMP JUMPDEST PUSH1 0x0 PUSH32 0x0 SWAP1 POP SWAP1 JUMP JUMPDEST PUSH1 0x0 DUP1 PUSH20 0xB4C4A493AB6356497713A78FFA6C60FB53517C63 PUSH20 0xFFFFFFFFFFFFFFFFFFFFFFFFFFFFFFFFFFFFFFFF AND PUSH4 0xFEAF968C PUSH1 0x40 MLOAD DUP2 PUSH4 0xFFFFFFFF AND PUSH1 0xE0 SHL DUP2 MSTORE PUSH1 0x4 ADD PUSH1 0xA0 PUSH1 0x40 MLOAD DUP1 DUP4 SUB DUP2 DUP7 DUP1 EXTCODESIZE ISZERO DUP1 ISZERO PUSH2 0xABF JUMPI PUSH1 0x0 DUP1 REVERT JUMPDEST POP GAS STATICCALL ISZERO DUP1 ISZERO PUSH2 0xAD3 JUMPI RETURNDATASIZE PUSH1 0x0 DUP1 RETURNDATACOPY RETURNDATASIZE PUSH1 0x0 REVERT JUMPDEST POP POP POP POP PUSH1 0x40 MLOAD RETURNDATASIZE PUSH1 0x1F NOT PUSH1 0x1F DUP3 ADD AND DUP3 ADD DUP1 PUSH1 0x40 MSTORE POP DUP2 ADD SWAP1 PUSH2 0xAF7 SWAP2 SWAP1 PUSH2 0x1AB6 JUMP JUMPDEST POP POP POP SWAP2 POP POP PUSH1 0x0 PUSH20 0xB4C4A493AB6356497713A78FFA6C60FB53517C63 PUSH20 0xFFFFFFFFFFFFFFFFFFFFFFFFFFFFFFFFFFFFFFFF AND PUSH4 0x313CE567 PUSH1 0x40 MLOAD DUP2 PUSH4 0xFFFFFFFF AND PUSH1 0xE0 SHL DUP2 MSTORE PUSH1 0x4 ADD PUSH1 0x20 PUSH1 0x40 MLOAD DUP1 DUP4 SUB DUP2 DUP7 DUP1 EXTCODESIZE ISZERO DUP1 ISZERO PUSH2 0xB59 JUMPI PUSH1 0x0 DUP1 REVERT JUMPDEST POP GAS STATICCALL ISZERO DUP1 ISZERO PUSH2 0xB6D JUMPI RETURNDATASIZE PUSH1 0x0 DUP1 RETURNDATACOPY RETURNDATASIZE PUSH1 0x0 REVERT JUMPDEST POP POP POP POP PUSH1 0x40 MLOAD RETURNDATASIZE PUSH1 0x1F NOT PUSH1 0x1F DUP3 ADD AND DUP3 ADD DUP1 PUSH1 0x40 MSTORE POP DUP2 ADD SWAP1 PUSH2 0xB91 SWAP2 SWAP1 PUSH2 0x1B46 JUMP JUMPDEST SWAP1 POP PUSH1 0x0 DUP2 PUSH1 0xA PUSH2 0xBA2 SWAP2 SWAP1 PUSH2 0x1CA6 JUMP JUMPDEST DUP6 DUP5 PUSH2 0xBAE SWAP2 SWAP1 PUSH2 0x1CF1 JUMP JUMPDEST PUSH2 0xBB8 SWAP2 SWAP1 PUSH2 0x1E08 JUMP JUMPDEST SWAP1 POP DUP1 SWAP4 POP POP POP POP SWAP2 SWAP1 POP JUMP JUMPDEST PUSH20 0x373CAC07BE6A672BA1E91D982F2F7959F1813F68 PUSH20 0xFFFFFFFFFFFFFFFFFFFFFFFFFFFFFFFFFFFFFFFF AND PUSH4 0xC381BC1A DUP3 PUSH1 0x40 MLOAD DUP3 PUSH4 0xFFFFFFFF AND PUSH1 0xE0 SHL DUP2 MSTORE PUSH1 0x4 ADD PUSH1 0x0 PUSH1 0x40 MLOAD DUP1 DUP4 SUB DUP2 DUP6 DUP9 DUP1 EXTCODESIZE ISZERO DUP1 ISZERO PUSH2 0xC21 JUMPI PUSH1 0x0 DUP1 REVERT JUMPDEST POP GAS CALL ISZERO DUP1 ISZERO PUSH2 0xC35 JUMPI RETURNDATASIZE PUSH1 0x0 DUP1 RETURNDATACOPY RETURNDATASIZE PUSH1 0x0 REVERT JUMPDEST POP POP POP POP POP POP JUMP JUMPDEST PUSH1 0x0 DUP1 PUSH20 0x708701A1DFF4F478DE54383E49A627ED4852C816 PUSH20 0xFFFFFFFFFFFFFFFFFFFFFFFFFFFFFFFFFFFFFFFF AND PUSH4 0x4306D354 DUP7 PUSH1 0x40 MLOAD DUP3 PUSH4 0xFFFFFFFF AND PUSH1 0xE0 SHL DUP2 MSTORE PUSH1 0x4 ADD PUSH2 0xC8D SWAP2 SWAP1 PUSH2 0x1624 JUMP JUMPDEST PUSH1 0x20 PUSH1 0x40 MLOAD DUP1 DUP4 SUB DUP2 DUP7 DUP1 EXTCODESIZE ISZERO DUP1 ISZERO PUSH2 0xCA5 JUMPI PUSH1 0x0 DUP1 REVERT JUMPDEST POP GAS STATICCALL ISZERO DUP1 ISZERO PUSH2 0xCB9 JUMPI RETURNDATASIZE PUSH1 0x0 DUP1 RETURNDATACOPY RETURNDATASIZE PUSH1 0x0 REVERT JUMPDEST POP POP POP POP PUSH1 0x40 MLOAD RETURNDATASIZE PUSH1 0x1F NOT PUSH1 0x1F DUP3 ADD AND DUP3 ADD DUP1 PUSH1 0x40 MSTORE POP DUP2 ADD SWAP1 PUSH2 0xCDD SWAP2 SWAP1 PUSH2 0x1654 JUMP JUMPDEST SWAP1 POP PUSH32 0x9BA824A825BA160B072EF594E0B2D8A64C834AA76E938EBDFB294F0AD3254E1D DUP2 PUSH1 0x40 MLOAD PUSH2 0xD0E SWAP2 SWAP1 PUSH2 0x14A1 JUMP JUMPDEST PUSH1 0x40 MLOAD DUP1 SWAP2 SUB SWAP1 LOG1 PUSH1 0x0 PUSH20 0x326C977E6EFC84E512BB9C30F76E30C160ED06FB PUSH20 0xFFFFFFFFFFFFFFFFFFFFFFFFFFFFFFFFFFFFFFFF AND PUSH4 0x4000AEA0 PUSH20 0x708701A1DFF4F478DE54383E49A627ED4852C816 DUP5 DUP10 DUP10 DUP10 PUSH1 0x40 MLOAD PUSH1 0x20 ADD PUSH2 0xD73 SWAP4 SWAP3 SWAP2 SWAP1 PUSH2 0x1E8F JUMP JUMPDEST PUSH1 0x40 MLOAD PUSH1 0x20 DUP2 DUP4 SUB SUB DUP2 MSTORE SWAP1 PUSH1 0x40 MSTORE PUSH1 0x40 MLOAD DUP5 PUSH4 0xFFFFFFFF AND PUSH1 0xE0 SHL DUP2 MSTORE PUSH1 0x4 ADD PUSH2 0xDA0 SWAP4 SWAP3 SWAP2 SWAP1 PUSH2 0x1F4E JUMP JUMPDEST PUSH1 0x20 PUSH1 0x40 MLOAD DUP1 DUP4 SUB DUP2 PUSH1 0x0 DUP8 DUP1 EXTCODESIZE ISZERO DUP1 ISZERO PUSH2 0xDBA JUMPI PUSH1 0x0 DUP1 REVERT JUMPDEST POP GAS CALL ISZERO DUP1 ISZERO PUSH2 0xDCE JUMPI RETURNDATASIZE PUSH1 0x0 DUP1 RETURNDATACOPY RETURNDATASIZE PUSH1 0x0 REVERT JUMPDEST POP POP POP POP PUSH1 0x40 MLOAD RETURNDATASIZE PUSH1 0x1F NOT PUSH1 0x1F DUP3 ADD AND DUP3 ADD DUP1 PUSH1 0x40 MSTORE POP DUP2 ADD SWAP1 PUSH2 0xDF2 SWAP2 SWAP1 PUSH2 0x1FC4 JUMP JUMPDEST SWAP1 POP PUSH20 0x708701A1DFF4F478DE54383E49A627ED4852C816 PUSH20 0xFFFFFFFFFFFFFFFFFFFFFFFFFFFFFFFFFFFFFFFF AND PUSH4 0xFC2A88C3 PUSH1 0x40 MLOAD DUP2 PUSH4 0xFFFFFFFF AND PUSH1 0xE0 SHL DUP2 MSTORE PUSH1 0x4 ADD PUSH1 0x20 PUSH1 0x40 MLOAD DUP1 DUP4 SUB DUP2 DUP7 DUP1 EXTCODESIZE ISZERO DUP1 ISZERO PUSH2 0xE4E JUMPI PUSH1 0x0 DUP1 REVERT JUMPDEST POP GAS STATICCALL ISZERO DUP1 ISZERO PUSH2 0xE62 JUMPI RETURNDATASIZE PUSH1 0x0 DUP1 RETURNDATACOPY RETURNDATASIZE PUSH1 0x0 REVERT JUMPDEST POP POP POP POP PUSH1 0x40 MLOAD RETURNDATASIZE PUSH1 0x1F NOT PUSH1 0x1F DUP3 ADD AND DUP3 ADD DUP1 PUSH1 0x40 MSTORE POP DUP2 ADD SWAP1 PUSH2 0xE86 SWAP2 SWAP1 PUSH2 0x1654 JUMP JUMPDEST SWAP3 POP POP POP SWAP4 SWAP3 POP POP POP JUMP JUMPDEST PUSH1 0x0 PUSH20 0x326C977E6EFC84E512BB9C30F76E30C160ED06FB PUSH20 0xFFFFFFFFFFFFFFFFFFFFFFFFFFFFFFFFFFFFFFFF AND PUSH4 0x70A08231 ADDRESS PUSH1 0x40 MLOAD DUP3 PUSH4 0xFFFFFFFF AND PUSH1 0xE0 SHL DUP2 MSTORE PUSH1 0x4 ADD PUSH2 0xEE0 SWAP2 SWAP1 PUSH2 0x13BB JUMP JUMPDEST PUSH1 0x20 PUSH1 0x40 MLOAD DUP1 DUP4 SUB DUP2 DUP7 DUP1 EXTCODESIZE ISZERO DUP1 ISZERO PUSH2 0xEF8 JUMPI PUSH1 0x0 DUP1 REVERT JUMPDEST POP GAS STATICCALL ISZERO DUP1 ISZERO PUSH2 0xF0C JUMPI RETURNDATASIZE PUSH1 0x0 DUP1 RETURNDATACOPY RETURNDATASIZE PUSH1 0x0 REVERT JUMPDEST POP POP POP POP PUSH1 0x40 MLOAD RETURNDATASIZE PUSH1 0x1F NOT PUSH1 0x1F DUP3 ADD AND DUP3 ADD DUP1 PUSH1 0x40 MSTORE POP DUP2 ADD SWAP1 PUSH2 0xF30 SWAP2 SWAP1 PUSH2 0x1654 JUMP JUMPDEST SWAP1 POP PUSH1 0x0 DUP2 GT PUSH2 0xF75 JUMPI PUSH1 0x40 MLOAD PUSH32 0x8C379A000000000000000000000000000000000000000000000000000000000 DUP2 MSTORE PUSH1 0x4 ADD PUSH2 0xF6C SWAP1 PUSH2 0x203D JUMP JUMPDEST PUSH1 0x40 MLOAD DUP1 SWAP2 SUB SWAP1 REVERT JUMPDEST PUSH1 0x0 PUSH20 0x326C977E6EFC84E512BB9C30F76E30C160ED06FB PUSH20 0xFFFFFFFFFFFFFFFFFFFFFFFFFFFFFFFFFFFFFFFF AND PUSH4 0x95EA7B3 PUSH20 0x373CAC07BE6A672BA1E91D982F2F7959F1813F68 DUP5 PUSH1 0x40 MLOAD DUP4 PUSH4 0xFFFFFFFF AND PUSH1 0xE0 SHL DUP2 MSTORE PUSH1 0x4 ADD PUSH2 0xFDA SWAP3 SWAP2 SWAP1 PUSH2 0x205D JUMP JUMPDEST PUSH1 0x20 PUSH1 0x40 MLOAD DUP1 DUP4 SUB DUP2 PUSH1 0x0 DUP8 DUP1 EXTCODESIZE ISZERO DUP1 ISZERO PUSH2 0xFF4 JUMPI PUSH1 0x0 DUP1 REVERT JUMPDEST POP GAS CALL ISZERO DUP1 ISZERO PUSH2 0x1008 JUMPI RETURNDATASIZE PUSH1 0x0 DUP1 RETURNDATACOPY RETURNDATASIZE PUSH1 0x0 REVERT JUMPDEST POP POP POP POP PUSH1 0x40 MLOAD RETURNDATASIZE PUSH1 0x1F NOT PUSH1 0x1F DUP3 ADD AND DUP3 ADD DUP1 PUSH1 0x40 MSTORE POP DUP2 ADD SWAP1 PUSH2 0x102C SWAP2 SWAP1 PUSH2 0x1FC4 JUMP JUMPDEST SWAP1 POP DUP1 PUSH2 0x106E JUMPI PUSH1 0x40 MLOAD PUSH32 0x8C379A000000000000000000000000000000000000000000000000000000000 DUP2 MSTORE PUSH1 0x4 ADD PUSH2 0x1065 SWAP1 PUSH2 0x20D2 JUMP JUMPDEST PUSH1 0x40 MLOAD DUP1 SWAP2 SUB SWAP1 REVERT JUMPDEST PUSH20 0x373CAC07BE6A672BA1E91D982F2F7959F1813F68 PUSH20 0xFFFFFFFFFFFFFFFFFFFFFFFFFFFFFFFFFFFFFFFF AND PUSH4 0x6BD14C7F DUP4 PUSH1 0x1 PUSH1 0x0 SWAP1 SLOAD SWAP1 PUSH2 0x100 EXP SWAP1 DIV PUSH20 0xFFFFFFFFFFFFFFFFFFFFFFFFFFFFFFFFFFFFFFFF AND PUSH1 0x40 MLOAD DUP4 PUSH4 0xFFFFFFFF AND PUSH1 0xE0 SHL DUP2 MSTORE PUSH1 0x4 ADD PUSH2 0x10DF SWAP3 SWAP2 SWAP1 PUSH2 0x2113 JUMP JUMPDEST PUSH1 0x0 PUSH1 0x40 MLOAD DUP1 DUP4 SUB DUP2 PUSH1 0x0 DUP8 DUP1 EXTCODESIZE ISZERO DUP1 ISZERO PUSH2 0x10F9 JUMPI PUSH1 0x0 DUP1 REVERT JUMPDEST POP GAS CALL ISZERO DUP1 ISZERO PUSH2 0x110D JUMPI RETURNDATASIZE PUSH1 0x0 DUP1 RETURNDATACOPY RETURNDATASIZE PUSH1 0x0 REVERT JUMPDEST POP POP POP POP POP POP JUMP JUMPDEST PUSH1 0x0 PUSH1 0x40 MLOAD SWAP1 POP SWAP1 JUMP JUMPDEST PUSH1 0x0 DUP1 REVERT JUMPDEST PUSH1 0x0 DUP1 REVERT JUMPDEST PUSH1 0x0 PUSH1 0xFF DUP3 AND SWAP1 POP SWAP2 SWAP1 POP JUMP JUMPDEST PUSH2 0x113F DUP2 PUSH2 0x1129 JUMP JUMPDEST DUP2 EQ PUSH2 0x114A JUMPI PUSH1 0x0 DUP1 REVERT JUMPDEST POP JUMP JUMPDEST PUSH1 0x0 DUP2 CALLDATALOAD SWAP1 POP PUSH2 0x115C DUP2 PUSH2 0x1136 JUMP JUMPDEST SWAP3 SWAP2 POP POP JUMP JUMPDEST PUSH1 0x0 PUSH1 0x20 DUP3 DUP5 SUB SLT ISZERO PUSH2 0x1178 JUMPI PUSH2 0x1177 PUSH2 0x111F JUMP JUMPDEST JUMPDEST PUSH1 0x0 PUSH2 0x1186 DUP5 DUP3 DUP6 ADD PUSH2 0x114D JUMP JUMPDEST SWAP2 POP POP SWAP3 SWAP2 POP POP JUMP JUMPDEST PUSH1 0x0 DUP2 SWAP1 POP SWAP2 SWAP1 POP JUMP JUMPDEST PUSH2 0x11A2 DUP2 PUSH2 0x118F JUMP JUMPDEST DUP2 EQ PUSH2 0x11AD JUMPI PUSH1 0x0 DUP1 REVERT JUMPDEST POP JUMP JUMPDEST PUSH1 0x0 DUP2 CALLDATALOAD SWAP1 POP PUSH2 0x11BF DUP2 PUSH2 0x1199 JUMP JUMPDEST SWAP3 SWAP2 POP POP JUMP JUMPDEST PUSH1 0x0 DUP1 REVERT JUMPDEST PUSH1 0x0 PUSH1 0x1F NOT PUSH1 0x1F DUP4 ADD AND SWAP1 POP SWAP2 SWAP1 POP JUMP JUMPDEST PUSH32 0x4E487B7100000000000000000000000000000000000000000000000000000000 PUSH1 0x0 MSTORE PUSH1 0x41 PUSH1 0x4 MSTORE PUSH1 0x24 PUSH1 0x0 REVERT JUMPDEST PUSH2 0x1213 DUP3 PUSH2 0x11CA JUMP JUMPDEST DUP2 ADD DUP2 DUP2 LT PUSH8 0xFFFFFFFFFFFFFFFF DUP3 GT OR ISZERO PUSH2 0x1232 JUMPI PUSH2 0x1231 PUSH2 0x11DB JUMP JUMPDEST JUMPDEST DUP1 PUSH1 0x40 MSTORE POP POP POP JUMP JUMPDEST PUSH1 0x0 PUSH2 0x1245 PUSH2 0x1115 JUMP JUMPDEST SWAP1 POP PUSH2 0x1251 DUP3 DUP3 PUSH2 0x120A JUMP JUMPDEST SWAP2 SWAP1 POP JUMP JUMPDEST PUSH1 0x0 PUSH8 0xFFFFFFFFFFFFFFFF DUP3 GT ISZERO PUSH2 0x1271 JUMPI PUSH2 0x1270 PUSH2 0x11DB JUMP JUMPDEST JUMPDEST PUSH1 0x20 DUP3 MUL SWAP1 POP PUSH1 0x20 DUP2 ADD SWAP1 POP SWAP2 SWAP1 POP JUMP JUMPDEST PUSH1 0x0 DUP1 REVERT JUMPDEST PUSH1 0x0 PUSH2 0x129A PUSH2 0x1295 DUP5 PUSH2 0x1256 JUMP JUMPDEST PUSH2 0x123B JUMP JUMPDEST SWAP1 POP DUP1 DUP4 DUP3 MSTORE PUSH1 0x20 DUP3 ADD SWAP1 POP PUSH1 0x20 DUP5 MUL DUP4 ADD DUP6 DUP2 GT ISZERO PUSH2 0x12BD JUMPI PUSH2 0x12BC PUSH2 0x1282 JUMP JUMPDEST JUMPDEST DUP4 JUMPDEST DUP2 DUP2 LT ISZERO PUSH2 0x12E6 JUMPI DUP1 PUSH2 0x12D2 DUP9 DUP3 PUSH2 0x11B0 JUMP JUMPDEST DUP5 MSTORE PUSH1 0x20 DUP5 ADD SWAP4 POP POP PUSH1 0x20 DUP2 ADD SWAP1 POP PUSH2 0x12BF JUMP JUMPDEST POP POP POP SWAP4 SWAP3 POP POP POP JUMP JUMPDEST PUSH1 0x0 DUP3 PUSH1 0x1F DUP4 ADD SLT PUSH2 0x1305 JUMPI PUSH2 0x1304 PUSH2 0x11C5 JUMP JUMPDEST JUMPDEST DUP2 CALLDATALOAD PUSH2 0x1315 DUP5 DUP3 PUSH1 0x20 DUP7 ADD PUSH2 0x1287 JUMP JUMPDEST SWAP2 POP POP SWAP3 SWAP2 POP POP JUMP JUMPDEST PUSH1 0x0 DUP1 PUSH1 0x40 DUP4 DUP6 SUB SLT ISZERO PUSH2 0x1335 JUMPI PUSH2 0x1334 PUSH2 0x111F JUMP JUMPDEST JUMPDEST PUSH1 0x0 PUSH2 0x1343 DUP6 DUP3 DUP7 ADD PUSH2 0x11B0 JUMP JUMPDEST SWAP3 POP POP PUSH1 0x20 DUP4 ADD CALLDATALOAD PUSH8 0xFFFFFFFFFFFFFFFF DUP2 GT ISZERO PUSH2 0x1364 JUMPI PUSH2 0x1363 PUSH2 0x1124 JUMP JUMPDEST JUMPDEST PUSH2 0x1370 DUP6 DUP3 DUP7 ADD PUSH2 0x12F0 JUMP JUMPDEST SWAP2 POP POP SWAP3 POP SWAP3 SWAP1 POP JUMP JUMPDEST PUSH1 0x0 PUSH20 0xFFFFFFFFFFFFFFFFFFFFFFFFFFFFFFFFFFFFFFFF DUP3 AND SWAP1 POP SWAP2 SWAP1 POP JUMP JUMPDEST PUSH1 0x0 PUSH2 0x13A5 DUP3 PUSH2 0x137A JUMP JUMPDEST SWAP1 POP SWAP2 SWAP1 POP JUMP JUMPDEST PUSH2 0x13B5 DUP2 PUSH2 0x139A JUMP JUMPDEST DUP3 MSTORE POP POP JUMP JUMPDEST PUSH1 0x0 PUSH1 0x20 DUP3 ADD SWAP1 POP PUSH2 0x13D0 PUSH1 0x0 DUP4 ADD DUP5 PUSH2 0x13AC JUMP JUMPDEST SWAP3 SWAP2 POP POP JUMP JUMPDEST PUSH32 0x4E487B7100000000000000000000000000000000000000000000000000000000 PUSH1 0x0 MSTORE PUSH1 0x21 PUSH1 0x4 MSTORE PUSH1 0x24 PUSH1 0x0 REVERT JUMPDEST PUSH1 0x4 DUP2 LT PUSH2 0x1416 JUMPI PUSH2 0x1415 PUSH2 0x13D6 JUMP JUMPDEST JUMPDEST POP JUMP JUMPDEST PUSH1 0x0 DUP2 SWAP1 POP PUSH2 0x1427 DUP3 PUSH2 0x1405 JUMP JUMPDEST SWAP2 SWAP1 POP JUMP JUMPDEST PUSH1 0x0 PUSH2 0x1437 DUP3 PUSH2 0x1419 JUMP JUMPDEST SWAP1 POP SWAP2 SWAP1 POP JUMP JUMPDEST PUSH2 0x1447 DUP2 PUSH2 0x142C JUMP JUMPDEST DUP3 MSTORE POP POP JUMP JUMPDEST PUSH1 0x0 PUSH1 0x20 DUP3 ADD SWAP1 POP PUSH2 0x1462 PUSH1 0x0 DUP4 ADD DUP5 PUSH2 0x143E JUMP JUMPDEST SWAP3 SWAP2 POP POP JUMP JUMPDEST PUSH2 0x1471 DUP2 PUSH2 0x1129 JUMP JUMPDEST DUP3 MSTORE POP POP JUMP JUMPDEST PUSH1 0x0 PUSH1 0x20 DUP3 ADD SWAP1 POP PUSH2 0x148C PUSH1 0x0 DUP4 ADD DUP5 PUSH2 0x1468 JUMP JUMPDEST SWAP3 SWAP2 POP POP JUMP JUMPDEST PUSH2 0x149B DUP2 PUSH2 0x118F JUMP JUMPDEST DUP3 MSTORE POP POP JUMP JUMPDEST PUSH1 0x0 PUSH1 0x20 DUP3 ADD SWAP1 POP PUSH2 0x14B6 PUSH1 0x0 DUP4 ADD DUP5 PUSH2 0x1492 JUMP JUMPDEST SWAP3 SWAP2 POP POP JUMP JUMPDEST PUSH1 0x0 DUP3 DUP3 MSTORE PUSH1 0x20 DUP3 ADD SWAP1 POP SWAP3 SWAP2 POP POP JUMP JUMPDEST PUSH32 0x47616D626C65206F66666572206973206E6F74206F70656E20616E796D6F7265 PUSH1 0x0 DUP3 ADD MSTORE POP JUMP JUMPDEST PUSH1 0x0 PUSH2 0x1503 PUSH1 0x20 DUP4 PUSH2 0x14BC JUMP JUMPDEST SWAP2 POP PUSH2 0x150E DUP3 PUSH2 0x14CD JUMP JUMPDEST PUSH1 0x20 DUP3 ADD SWAP1 POP SWAP2 SWAP1 POP JUMP JUMPDEST PUSH1 0x0 PUSH1 0x20 DUP3 ADD SWAP1 POP DUP2 DUP2 SUB PUSH1 0x0 DUP4 ADD MSTORE PUSH2 0x1532 DUP2 PUSH2 0x14F6 JUMP JUMPDEST SWAP1 POP SWAP2 SWAP1 POP JUMP JUMPDEST PUSH32 0x70617920656E6F75676820616D6F756E74000000000000000000000000000000 PUSH1 0x0 DUP3 ADD MSTORE POP JUMP JUMPDEST PUSH1 0x0 PUSH2 0x156F PUSH1 0x11 DUP4 PUSH2 0x14BC JUMP JUMPDEST SWAP2 POP PUSH2 0x157A DUP3 PUSH2 0x1539 JUMP JUMPDEST PUSH1 0x20 DUP3 ADD SWAP1 POP SWAP2 SWAP1 POP JUMP JUMPDEST PUSH1 0x0 PUSH1 0x20 DUP3 ADD SWAP1 POP DUP2 DUP2 SUB PUSH1 0x0 DUP4 ADD MSTORE PUSH2 0x159E DUP2 PUSH2 0x1562 JUMP JUMPDEST SWAP1 POP SWAP2 SWAP1 POP JUMP JUMPDEST PUSH32 0x4E487B7100000000000000000000000000000000000000000000000000000000 PUSH1 0x0 MSTORE PUSH1 0x12 PUSH1 0x4 MSTORE PUSH1 0x24 PUSH1 0x0 REVERT JUMPDEST PUSH1 0x0 PUSH2 0x15DF DUP3 PUSH2 0x1129 JUMP JUMPDEST SWAP2 POP PUSH2 0x15EA DUP4 PUSH2 0x1129 JUMP JUMPDEST SWAP3 POP DUP3 PUSH2 0x15FA JUMPI PUSH2 0x15F9 PUSH2 0x15A5 JUMP JUMPDEST JUMPDEST DUP3 DUP3 MOD SWAP1 POP SWAP3 SWAP2 POP POP JUMP JUMPDEST PUSH1 0x0 PUSH4 0xFFFFFFFF DUP3 AND SWAP1 POP SWAP2 SWAP1 POP JUMP JUMPDEST PUSH2 0x161E DUP2 PUSH2 0x1605 JUMP JUMPDEST DUP3 MSTORE POP POP JUMP JUMPDEST PUSH1 0x0 PUSH1 0x20 DUP3 ADD SWAP1 POP PUSH2 0x1639 PUSH1 0x0 DUP4 ADD DUP5 PUSH2 0x1615 JUMP JUMPDEST SWAP3 SWAP2 POP POP JUMP JUMPDEST PUSH1 0x0 DUP2 MLOAD SWAP1 POP PUSH2 0x164E DUP2 PUSH2 0x1199 JUMP JUMPDEST SWAP3 SWAP2 POP POP JUMP JUMPDEST PUSH1 0x0 PUSH1 0x20 DUP3 DUP5 SUB SLT ISZERO PUSH2 0x166A JUMPI PUSH2 0x1669 PUSH2 0x111F JUMP JUMPDEST JUMPDEST PUSH1 0x0 PUSH2 0x1678 DUP5 DUP3 DUP6 ADD PUSH2 0x163F JUMP JUMPDEST SWAP2 POP POP SWAP3 SWAP2 POP POP JUMP JUMPDEST PUSH1 0x0 DUP2 SWAP1 POP SWAP2 SWAP1 POP JUMP JUMPDEST PUSH2 0x1694 DUP2 PUSH2 0x1681 JUMP JUMPDEST DUP3 MSTORE POP POP JUMP JUMPDEST PUSH1 0x0 PUSH1 0x20 DUP3 ADD SWAP1 POP PUSH2 0x16AF PUSH1 0x0 DUP4 ADD DUP5 PUSH2 0x168B JUMP JUMPDEST SWAP3 SWAP2 POP POP JUMP JUMPDEST PUSH32 0x6E6F20757365206F662067616D626C696E672E2E2E6D6F6E65792077696C6C20 PUSH1 0x0 DUP3 ADD MSTORE PUSH32 0x676F20666F722076726600000000000000000000000000000000000000000000 PUSH1 0x20 DUP3 ADD MSTORE POP JUMP JUMPDEST PUSH1 0x0 PUSH2 0x1711 PUSH1 0x2A DUP4 PUSH2 0x14BC JUMP JUMPDEST SWAP2 POP PUSH2 0x171C DUP3 PUSH2 0x16B5 JUMP JUMPDEST PUSH1 0x40 DUP3 ADD SWAP1 POP SWAP2 SWAP1 POP JUMP JUMPDEST PUSH1 0x0 PUSH1 0x20 DUP3 ADD SWAP1 POP DUP2 DUP2 SUB PUSH1 0x0 DUP4 ADD MSTORE PUSH2 0x1740 DUP2 PUSH2 0x1704 JUMP JUMPDEST SWAP1 POP SWAP2 SWAP1 POP JUMP JUMPDEST PUSH32 0x4E487B7100000000000000000000000000000000000000000000000000000000 PUSH1 0x0 MSTORE PUSH1 0x11 PUSH1 0x4 MSTORE PUSH1 0x24 PUSH1 0x0 REVERT JUMPDEST PUSH1 0x0 PUSH2 0x1781 DUP3 PUSH2 0x118F JUMP JUMPDEST SWAP2 POP PUSH2 0x178C DUP4 PUSH2 0x118F JUMP JUMPDEST SWAP3 POP DUP3 PUSH32 0xFFFFFFFFFFFFFFFFFFFFFFFFFFFFFFFFFFFFFFFFFFFFFFFFFFFFFFFFFFFFFFFF SUB DUP3 GT ISZERO PUSH2 0x17C1 JUMPI PUSH2 0x17C0 PUSH2 0x1747 JUMP JUMPDEST JUMPDEST DUP3 DUP3 ADD SWAP1 POP SWAP3 SWAP2 POP POP JUMP JUMPDEST PUSH32 0x6F6E6C792056524620563220777261707065722063616E2066756C66696C6C00 PUSH1 0x0 DUP3 ADD MSTORE POP JUMP JUMPDEST PUSH1 0x0 PUSH2 0x1802 PUSH1 0x1F DUP4 PUSH2 0x14BC JUMP JUMPDEST SWAP2 POP PUSH2 0x180D DUP3 PUSH2 0x17CC JUMP JUMPDEST PUSH1 0x20 DUP3 ADD SWAP1 POP SWAP2 SWAP1 POP JUMP JUMPDEST PUSH1 0x0 PUSH1 0x20 DUP3 ADD SWAP1 POP DUP2 DUP2 SUB PUSH1 0x0 DUP4 ADD MSTORE PUSH2 0x1831 DUP2 PUSH2 0x17F5 JUMP JUMPDEST SWAP1 POP SWAP2 SWAP1 POP JUMP JUMPDEST PUSH32 0x4E487B7100000000000000000000000000000000000000000000000000000000 PUSH1 0x0 MSTORE PUSH1 0x32 PUSH1 0x4 MSTORE PUSH1 0x24 PUSH1 0x0 REVERT JUMPDEST PUSH1 0x0 PUSH2 0x1872 DUP3 PUSH2 0x118F JUMP JUMPDEST SWAP2 POP PUSH2 0x187D DUP4 PUSH2 0x118F JUMP JUMPDEST SWAP3 POP DUP3 PUSH2 0x188D JUMPI PUSH2 0x188C PUSH2 0x15A5 JUMP JUMPDEST JUMPDEST DUP3 DUP3 MOD SWAP1 POP SWAP3 SWAP2 POP POP JUMP JUMPDEST PUSH1 0x0 DUP2 SWAP1 POP SWAP3 SWAP2 POP POP JUMP JUMPDEST POP JUMP JUMPDEST PUSH1 0x0 PUSH2 0x18B3 PUSH1 0x0 DUP4 PUSH2 0x1898 JUMP JUMPDEST SWAP2 POP PUSH2 0x18BE DUP3 PUSH2 0x18A3 JUMP JUMPDEST PUSH1 0x0 DUP3 ADD SWAP1 POP SWAP2 SWAP1 POP JUMP JUMPDEST PUSH1 0x0 PUSH2 0x18D4 DUP3 PUSH2 0x18A6 JUMP JUMPDEST SWAP2 POP DUP2 SWAP1 POP SWAP2 SWAP1 POP JUMP JUMPDEST PUSH32 0x4554482063616E74206265207472616E73666572726564000000000000000000 PUSH1 0x0 DUP3 ADD MSTORE POP JUMP JUMPDEST PUSH1 0x0 PUSH2 0x1914 PUSH1 0x17 DUP4 PUSH2 0x14BC JUMP JUMPDEST SWAP2 POP PUSH2 0x191F DUP3 PUSH2 0x18DE JUMP JUMPDEST PUSH1 0x20 DUP3 ADD SWAP1 POP SWAP2 SWAP1 POP JUMP JUMPDEST PUSH1 0x0 PUSH1 0x20 DUP3 ADD SWAP1 POP DUP2 DUP2 SUB PUSH1 0x0 DUP4 ADD MSTORE PUSH2 0x1943 DUP2 PUSH2 0x1907 JUMP JUMPDEST SWAP1 POP SWAP2 SWAP1 POP JUMP JUMPDEST PUSH32 0x57696E6E657220686173206E6F7420796574206265656E20666F756E64000000 PUSH1 0x0 DUP3 ADD MSTORE POP JUMP JUMPDEST PUSH1 0x0 PUSH2 0x1980 PUSH1 0x1D DUP4 PUSH2 0x14BC JUMP JUMPDEST SWAP2 POP PUSH2 0x198B DUP3 PUSH2 0x194A JUMP JUMPDEST PUSH1 0x20 DUP3 ADD SWAP1 POP SWAP2 SWAP1 POP JUMP JUMPDEST PUSH1 0x0 PUSH1 0x20 DUP3 ADD SWAP1 POP DUP2 DUP2 SUB PUSH1 0x0 DUP4 ADD MSTORE PUSH2 0x19AF DUP2 PUSH2 0x1973 JUMP JUMPDEST SWAP1 POP SWAP2 SWAP1 POP JUMP JUMPDEST PUSH32 0x4F6E6C79206F66666572206D616B65722063616E2063616E63656C2074686973 PUSH1 0x0 DUP3 ADD MSTORE PUSH32 0x206F666665720000000000000000000000000000000000000000000000000000 PUSH1 0x20 DUP3 ADD MSTORE POP JUMP JUMPDEST PUSH1 0x0 PUSH2 0x1A12 PUSH1 0x26 DUP4 PUSH2 0x14BC JUMP JUMPDEST SWAP2 POP PUSH2 0x1A1D DUP3 PUSH2 0x19B6 JUMP JUMPDEST PUSH1 0x40 DUP3 ADD SWAP1 POP SWAP2 SWAP1 POP JUMP JUMPDEST PUSH1 0x0 PUSH1 0x20 DUP3 ADD SWAP1 POP DUP2 DUP2 SUB PUSH1 0x0 DUP4 ADD MSTORE PUSH2 0x1A41 DUP2 PUSH2 0x1A05 JUMP JUMPDEST SWAP1 POP SWAP2 SWAP1 POP JUMP JUMPDEST PUSH1 0x0 PUSH10 0xFFFFFFFFFFFFFFFFFFFF DUP3 AND SWAP1 POP SWAP2 SWAP1 POP JUMP JUMPDEST PUSH2 0x1A67 DUP2 PUSH2 0x1A48 JUMP JUMPDEST DUP2 EQ PUSH2 0x1A72 JUMPI PUSH1 0x0 DUP1 REVERT JUMPDEST POP JUMP JUMPDEST PUSH1 0x0 DUP2 MLOAD SWAP1 POP PUSH2 0x1A84 DUP2 PUSH2 0x1A5E JUMP JUMPDEST SWAP3 SWAP2 POP POP JUMP JUMPDEST PUSH2 0x1A93 DUP2 PUSH2 0x1681 JUMP JUMPDEST DUP2 EQ PUSH2 0x1A9E JUMPI PUSH1 0x0 DUP1 REVERT JUMPDEST POP JUMP JUMPDEST PUSH1 0x0 DUP2 MLOAD SWAP1 POP PUSH2 0x1AB0 DUP2 PUSH2 0x1A8A JUMP JUMPDEST SWAP3 SWAP2 POP POP JUMP JUMPDEST PUSH1 0x0 DUP1 PUSH1 0x0 DUP1 PUSH1 0x0 PUSH1 0xA0 DUP7 DUP9 SUB SLT ISZERO PUSH2 0x1AD2 JUMPI PUSH2 0x1AD1 PUSH2 0x111F JUMP JUMPDEST JUMPDEST PUSH1 0x0 PUSH2 0x1AE0 DUP9 DUP3 DUP10 ADD PUSH2 0x1A75 JUMP JUMPDEST SWAP6 POP POP PUSH1 0x20 PUSH2 0x1AF1 DUP9 DUP3 DUP10 ADD PUSH2 0x1AA1 JUMP JUMPDEST SWAP5 POP POP PUSH1 0x40 PUSH2 0x1B02 DUP9 DUP3 DUP10 ADD PUSH2 0x163F JUMP JUMPDEST SWAP4 POP POP PUSH1 0x60 PUSH2 0x1B13 DUP9 DUP3 DUP10 ADD PUSH2 0x163F JUMP JUMPDEST SWAP3 POP POP PUSH1 0x80 PUSH2 0x1B24 DUP9 DUP3 DUP10 ADD PUSH2 0x1A75 JUMP JUMPDEST SWAP2 POP POP SWAP3 SWAP6 POP SWAP3 SWAP6 SWAP1 SWAP4 POP JUMP JUMPDEST PUSH1 0x0 DUP2 MLOAD SWAP1 POP PUSH2 0x1B40 DUP2 PUSH2 0x1136 JUMP JUMPDEST SWAP3 SWAP2 POP POP JUMP JUMPDEST PUSH1 0x0 PUSH1 0x20 DUP3 DUP5 SUB SLT ISZERO PUSH2 0x1B5C JUMPI PUSH2 0x1B5B PUSH2 0x111F JUMP JUMPDEST JUMPDEST PUSH1 0x0 PUSH2 0x1B6A DUP5 DUP3 DUP6 ADD PUSH2 0x1B31 JUMP JUMPDEST SWAP2 POP POP SWAP3 SWAP2 POP POP JUMP JUMPDEST PUSH1 0x0 DUP2 PUSH1 0x1 SHR SWAP1 POP SWAP2 SWAP1 POP JUMP JUMPDEST PUSH1 0x0 DUP1 DUP3 SWAP2 POP DUP4 SWAP1 POP JUMPDEST PUSH1 0x1 DUP6 GT ISZERO PUSH2 0x1BCA JUMPI DUP1 DUP7 DIV DUP2 GT ISZERO PUSH2 0x1BA6 JUMPI PUSH2 0x1BA5 PUSH2 0x1747 JUMP JUMPDEST JUMPDEST PUSH1 0x1 DUP6 AND ISZERO PUSH2 0x1BB5 JUMPI DUP1 DUP3 MUL SWAP2 POP JUMPDEST DUP1 DUP2 MUL SWAP1 POP PUSH2 0x1BC3 DUP6 PUSH2 0x1B73 JUMP JUMPDEST SWAP5 POP PUSH2 0x1B8A JUMP JUMPDEST SWAP5 POP SWAP5 SWAP3 POP POP POP JUMP JUMPDEST PUSH1 0x0 DUP3 PUSH2 0x1BE3 JUMPI PUSH1 0x1 SWAP1 POP PUSH2 0x1C9F JUMP JUMPDEST DUP2 PUSH2 0x1BF1 JUMPI PUSH1 0x0 SWAP1 POP PUSH2 0x1C9F JUMP JUMPDEST DUP2 PUSH1 0x1 DUP2 EQ PUSH2 0x1C07 JUMPI PUSH1 0x2 DUP2 EQ PUSH2 0x1C11 JUMPI PUSH2 0x1C40 JUMP JUMPDEST PUSH1 0x1 SWAP2 POP POP PUSH2 0x1C9F JUMP JUMPDEST PUSH1 0xFF DUP5 GT ISZERO PUSH2 0x1C23 JUMPI PUSH2 0x1C22 PUSH2 0x1747 JUMP JUMPDEST JUMPDEST DUP4 PUSH1 0x2 EXP SWAP2 POP DUP5 DUP3 GT ISZERO PUSH2 0x1C3A JUMPI PUSH2 0x1C39 PUSH2 0x1747 JUMP JUMPDEST JUMPDEST POP PUSH2 0x1C9F JUMP JUMPDEST POP PUSH1 0x20 DUP4 LT PUSH2 0x133 DUP4 LT AND PUSH1 0x4E DUP5 LT PUSH1 0xB DUP5 LT AND OR ISZERO PUSH2 0x1C75 JUMPI DUP3 DUP3 EXP SWAP1 POP DUP4 DUP2 GT ISZERO PUSH2 0x1C70 JUMPI PUSH2 0x1C6F PUSH2 0x1747 JUMP JUMPDEST JUMPDEST PUSH2 0x1C9F JUMP JUMPDEST PUSH2 0x1C82 DUP5 DUP5 DUP5 PUSH1 0x1 PUSH2 0x1B80 JUMP JUMPDEST SWAP3 POP SWAP1 POP DUP2 DUP5 DIV DUP2 GT ISZERO PUSH2 0x1C99 JUMPI PUSH2 0x1C98 PUSH2 0x1747 JUMP JUMPDEST JUMPDEST DUP2 DUP2 MUL SWAP1 POP JUMPDEST SWAP4 SWAP3 POP POP POP JUMP JUMPDEST PUSH1 0x0 PUSH2 0x1CB1 DUP3 PUSH2 0x118F JUMP JUMPDEST SWAP2 POP PUSH2 0x1CBC DUP4 PUSH2 0x1129 JUMP JUMPDEST SWAP3 POP PUSH2 0x1CE9 PUSH32 0xFFFFFFFFFFFFFFFFFFFFFFFFFFFFFFFFFFFFFFFFFFFFFFFFFFFFFFFFFFFFFFFF DUP5 DUP5 PUSH2 0x1BD3 JUMP JUMPDEST SWAP1 POP SWAP3 SWAP2 POP POP JUMP JUMPDEST PUSH1 0x0 PUSH2 0x1CFC DUP3 PUSH2 0x1681 JUMP JUMPDEST SWAP2 POP PUSH2 0x1D07 DUP4 PUSH2 0x1681 JUMP JUMPDEST SWAP3 POP DUP3 PUSH32 0x7FFFFFFFFFFFFFFFFFFFFFFFFFFFFFFFFFFFFFFFFFFFFFFFFFFFFFFFFFFFFFFF DIV DUP3 GT PUSH1 0x0 DUP5 SGT PUSH1 0x0 DUP5 SGT AND AND ISZERO PUSH2 0x1D46 JUMPI PUSH2 0x1D45 PUSH2 0x1747 JUMP JUMPDEST JUMPDEST DUP2 PUSH32 0x8000000000000000000000000000000000000000000000000000000000000000 SDIV DUP4 SLT PUSH1 0x0 DUP5 SLT PUSH1 0x0 DUP5 SGT AND AND ISZERO PUSH2 0x1D83 JUMPI PUSH2 0x1D82 PUSH2 0x1747 JUMP JUMPDEST JUMPDEST DUP3 PUSH32 0x8000000000000000000000000000000000000000000000000000000000000000 SDIV DUP3 SLT PUSH1 0x0 DUP5 SGT PUSH1 0x0 DUP5 SLT AND AND ISZERO PUSH2 0x1DC0 JUMPI PUSH2 0x1DBF PUSH2 0x1747 JUMP JUMPDEST JUMPDEST DUP3 PUSH32 0x7FFFFFFFFFFFFFFFFFFFFFFFFFFFFFFFFFFFFFFFFFFFFFFFFFFFFFFFFFFFFFFF SDIV DUP3 SLT PUSH1 0x0 DUP5 SLT PUSH1 0x0 DUP5 SLT AND AND ISZERO PUSH2 0x1DFD JUMPI PUSH2 0x1DFC PUSH2 0x1747 JUMP JUMPDEST JUMPDEST DUP3 DUP3 MUL SWAP1 POP SWAP3 SWAP2 POP POP JUMP JUMPDEST PUSH1 0x0 PUSH2 0x1E13 DUP3 PUSH2 0x1681 JUMP JUMPDEST SWAP2 POP PUSH2 0x1E1E DUP4 PUSH2 0x1681 JUMP JUMPDEST SWAP3 POP DUP3 PUSH2 0x1E2E JUMPI PUSH2 0x1E2D PUSH2 0x15A5 JUMP JUMPDEST JUMPDEST PUSH1 0x1 PUSH1 0x0 SUB DUP4 EQ PUSH32 0x8000000000000000000000000000000000000000000000000000000000000000 DUP4 EQ AND ISZERO PUSH2 0x1E67 JUMPI PUSH2 0x1E66 PUSH2 0x1747 JUMP JUMPDEST JUMPDEST DUP3 DUP3 SDIV SWAP1 POP SWAP3 SWAP2 POP POP JUMP JUMPDEST PUSH1 0x0 PUSH2 0xFFFF DUP3 AND SWAP1 POP SWAP2 SWAP1 POP JUMP JUMPDEST PUSH2 0x1E89 DUP2 PUSH2 0x1E72 JUMP JUMPDEST DUP3 MSTORE POP POP JUMP JUMPDEST PUSH1 0x0 PUSH1 0x60 DUP3 ADD SWAP1 POP PUSH2 0x1EA4 PUSH1 0x0 DUP4 ADD DUP7 PUSH2 0x1615 JUMP JUMPDEST PUSH2 0x1EB1 PUSH1 0x20 DUP4 ADD DUP6 PUSH2 0x1E80 JUMP JUMPDEST PUSH2 0x1EBE PUSH1 0x40 DUP4 ADD DUP5 PUSH2 0x1615 JUMP JUMPDEST SWAP5 SWAP4 POP POP POP POP JUMP JUMPDEST PUSH1 0x0 DUP2 MLOAD SWAP1 POP SWAP2 SWAP1 POP JUMP JUMPDEST PUSH1 0x0 DUP3 DUP3 MSTORE PUSH1 0x20 DUP3 ADD SWAP1 POP SWAP3 SWAP2 POP POP JUMP JUMPDEST PUSH1 0x0 JUMPDEST DUP4 DUP2 LT ISZERO PUSH2 0x1F00 JUMPI DUP1 DUP3 ADD MLOAD DUP2 DUP5 ADD MSTORE PUSH1 0x20 DUP2 ADD SWAP1 POP PUSH2 0x1EE5 JUMP JUMPDEST DUP4 DUP2 GT ISZERO PUSH2 0x1F0F JUMPI PUSH1 0x0 DUP5 DUP5 ADD MSTORE JUMPDEST POP POP POP POP JUMP JUMPDEST PUSH1 0x0 PUSH2 0x1F20 DUP3 PUSH2 0x1EC6 JUMP JUMPDEST PUSH2 0x1F2A DUP2 DUP6 PUSH2 0x1ED1 JUMP JUMPDEST SWAP4 POP PUSH2 0x1F3A DUP2 DUP6 PUSH1 0x20 DUP7 ADD PUSH2 0x1EE2 JUMP JUMPDEST PUSH2 0x1F43 DUP2 PUSH2 0x11CA JUMP JUMPDEST DUP5 ADD SWAP2 POP POP SWAP3 SWAP2 POP POP JUMP JUMPDEST PUSH1 0x0 PUSH1 0x60 DUP3 ADD SWAP1 POP PUSH2 0x1F63 PUSH1 0x0 DUP4 ADD DUP7 PUSH2 0x13AC JUMP JUMPDEST PUSH2 0x1F70 PUSH1 0x20 DUP4 ADD DUP6 PUSH2 0x1492 JUMP JUMPDEST DUP2 DUP2 SUB PUSH1 0x40 DUP4 ADD MSTORE PUSH2 0x1F82 DUP2 DUP5 PUSH2 0x1F15 JUMP JUMPDEST SWAP1 POP SWAP5 SWAP4 POP POP POP POP JUMP JUMPDEST PUSH1 0x0 DUP2 ISZERO ISZERO SWAP1 POP SWAP2 SWAP1 POP JUMP JUMPDEST PUSH2 0x1FA1 DUP2 PUSH2 0x1F8C JUMP JUMPDEST DUP2 EQ PUSH2 0x1FAC JUMPI PUSH1 0x0 DUP1 REVERT JUMPDEST POP JUMP JUMPDEST PUSH1 0x0 DUP2 MLOAD SWAP1 POP PUSH2 0x1FBE DUP2 PUSH2 0x1F98 JUMP JUMPDEST SWAP3 SWAP2 POP POP JUMP JUMPDEST PUSH1 0x0 PUSH1 0x20 DUP3 DUP5 SUB SLT ISZERO PUSH2 0x1FDA JUMPI PUSH2 0x1FD9 PUSH2 0x111F JUMP JUMPDEST JUMPDEST PUSH1 0x0 PUSH2 0x1FE8 DUP5 DUP3 DUP6 ADD PUSH2 0x1FAF JUMP JUMPDEST SWAP2 POP POP SWAP3 SWAP2 POP POP JUMP JUMPDEST PUSH32 0x4E6F206C696E6B206C65667420746F207472616E736665720000000000000000 PUSH1 0x0 DUP3 ADD MSTORE POP JUMP JUMPDEST PUSH1 0x0 PUSH2 0x2027 PUSH1 0x18 DUP4 PUSH2 0x14BC JUMP JUMPDEST SWAP2 POP PUSH2 0x2032 DUP3 PUSH2 0x1FF1 JUMP JUMPDEST PUSH1 0x20 DUP3 ADD SWAP1 POP SWAP2 SWAP1 POP JUMP JUMPDEST PUSH1 0x0 PUSH1 0x20 DUP3 ADD SWAP1 POP DUP2 DUP2 SUB PUSH1 0x0 DUP4 ADD MSTORE PUSH2 0x2056 DUP2 PUSH2 0x201A JUMP JUMPDEST SWAP1 POP SWAP2 SWAP1 POP JUMP JUMPDEST PUSH1 0x0 PUSH1 0x40 DUP3 ADD SWAP1 POP PUSH2 0x2072 PUSH1 0x0 DUP4 ADD DUP6 PUSH2 0x13AC JUMP JUMPDEST PUSH2 0x207F PUSH1 0x20 DUP4 ADD DUP5 PUSH2 0x1492 JUMP JUMPDEST SWAP4 SWAP3 POP POP POP JUMP JUMPDEST PUSH32 0x436F756C646E2774207472616E73666572204C494E4B00000000000000000000 PUSH1 0x0 DUP3 ADD MSTORE POP JUMP JUMPDEST PUSH1 0x0 PUSH2 0x20BC PUSH1 0x16 DUP4 PUSH2 0x14BC JUMP JUMPDEST SWAP2 POP PUSH2 0x20C7 DUP3 PUSH2 0x2086 JUMP JUMPDEST PUSH1 0x20 DUP3 ADD SWAP1 POP SWAP2 SWAP1 POP JUMP JUMPDEST PUSH1 0x0 PUSH1 0x20 DUP3 ADD SWAP1 POP DUP2 DUP2 SUB PUSH1 0x0 DUP4 ADD MSTORE PUSH2 0x20EB DUP2 PUSH2 0x20AF JUMP JUMPDEST SWAP1 POP SWAP2 SWAP1 POP JUMP JUMPDEST PUSH1 0x0 PUSH2 0x20FD DUP3 PUSH2 0x137A JUMP JUMPDEST SWAP1 POP SWAP2 SWAP1 POP JUMP JUMPDEST PUSH2 0x210D DUP2 PUSH2 0x20F2 JUMP JUMPDEST DUP3 MSTORE POP POP JUMP JUMPDEST PUSH1 0x0 PUSH1 0x40 DUP3 ADD SWAP1 POP PUSH2 0x2128 PUSH1 0x0 DUP4 ADD DUP6 PUSH2 0x1492 JUMP JUMPDEST PUSH2 0x2135 PUSH1 0x20 DUP4 ADD DUP5 PUSH2 0x2104 JUMP JUMPDEST SWAP4 SWAP3 POP POP POP JUMP INVALID LOG2 PUSH5 0x6970667358 0x22 SLT KECCAK256 PUSH16 0xF7FCB0EE0E97F40DC4D912BC8E32B2CE SGT DIV SIGNEXTEND SWAP7 PUSH10 0x6B62E961E2F778AFC680 PUSH5 0x736F6C6343 STOP ADDMOD ADDMOD STOP CALLER "},"methodIdentifiers":{"cancelOffer()":"62d05c78","enterGamble(uint8)":"04a81f5d","fulfillRandomWords(uint256,uint256[])":"38ba4614","rawFulfillRandomWords(uint256,uint256[])":"1fe543e3","viewGambler()":"3fc4f30b","viewGuess()":"9c2f9c9b","viewOfferAmount()":"b2e2e539","viewOfferMaker()":"b9d91ad6","viewState()":"801f3961","viewWinner()":"392e2403"}}}}}