{
  "_format": "hh-sol-artifact-1",
  "contractName": "ETHtoLink",
  "sourceName": "contracts/ETHtoLINKContract.sol",
  "abi": [
    {
      "inputs": [],
      "stateMutability": "nonpayable",
      "type": "constructor"
    },
    {
      "inputs": [],
      "name": "convertETHtoLINK",
      "outputs": [],
      "stateMutability": "payable",
      "type": "function"
    },
    {
      "inputs": [
        {
          "internalType": "uint256",
          "name": "amount",
          "type": "uint256"
        },
        {
          "internalType": "address payable",
          "name": "reciever",
          "type": "address"
        }
      ],
      "name": "convertLINKtoETH",
      "outputs": [],
      "stateMutability": "nonpayable",
      "type": "function"
    },
    {
      "inputs": [],
      "name": "withdrawETH",
      "outputs": [],
      "stateMutability": "nonpayable",
      "type": "function"
    }
  ],
  "bytecode": "0x60a060405234801561001057600080fd5b503373ffffffffffffffffffffffffffffffffffffffff1660808173ffffffffffffffffffffffffffffffffffffffff1660601b8152505060805160601c6110be61006d6000396000818161065701526106e701526110be6000f3fe6080604052600436106100345760003560e01c80636bd14c7f14610039578063c381bc1a14610062578063e086e5ec1461006c575b600080fd5b34801561004557600080fd5b50610060600480360381019061005b919061084b565b610083565b005b61006a610413565b005b34801561007857600080fd5b50610081610655565b005b8173326c977e6efc84e512bb9c30f76e30c160ed06fb73ffffffffffffffffffffffffffffffffffffffff1663dd62ed3e33306040518363ffffffff1660e01b81526004016100d39291906108ac565b60206040518083038186803b1580156100eb57600080fd5b505afa1580156100ff573d6000803e3d6000fd5b505050506040513d601f19601f8201168201806040525081019061012391906108ea565b1015610164576040517f08c379a000000000000000000000000000000000000000000000000000000000815260040161015b90610974565b60405180910390fd5b73326c977e6efc84e512bb9c30f76e30c160ed06fb73ffffffffffffffffffffffffffffffffffffffff166323b872dd3330856040518463ffffffff1660e01b81526004016101b5939291906109a3565b602060405180830381600087803b1580156101cf57600080fd5b505af11580156101e3573d6000803e3d6000fd5b505050506040513d601f19601f820116820180604052508101906102079190610a12565b50600073b4c4a493ab6356497713a78ffa6c60fb53517c6373ffffffffffffffffffffffffffffffffffffffff1663feaf968c6040518163ffffffff1660e01b815260040160a06040518083038186803b15801561026457600080fd5b505afa158015610278573d6000803e3d6000fd5b505050506040513d601f19601f8201168201806040525081019061029c9190610ab7565b505050915050600073b4c4a493ab6356497713a78ffa6c60fb53517c6373ffffffffffffffffffffffffffffffffffffffff1663313ce5676040518163ffffffff1660e01b815260040160206040518083038186803b1580156102fe57600080fd5b505afa158015610312573d6000803e3d6000fd5b505050506040513d601f19601f820116820180604052508101906103369190610b6b565b9050600081600a6103479190610cfa565b85846103539190610d45565b61035d9190610dce565b905060008473ffffffffffffffffffffffffffffffffffffffff168260405161038590610e30565b60006040518083038185875af1925050503d80600081146103c2576040519150601f19603f3d011682016040523d82523d6000602084013e6103c7565b606091505b505090508061040b576040517f08c379a000000000000000000000000000000000000000000000000000000000815260040161040290610e91565b60405180910390fd5b505050505050565b600073b4c4a493ab6356497713a78ffa6c60fb53517c6373ffffffffffffffffffffffffffffffffffffffff1663feaf968c6040518163ffffffff1660e01b815260040160a06040518083038186803b15801561046f57600080fd5b505afa158015610483573d6000803e3d6000fd5b505050506040513d601f19601f820116820180604052508101906104a79190610ab7565b505050915050600073b4c4a493ab6356497713a78ffa6c60fb53517c6373ffffffffffffffffffffffffffffffffffffffff1663313ce5676040518163ffffffff1660e01b815260040160206040518083038186803b15801561050957600080fd5b505afa15801561051d573d6000803e3d6000fd5b505050506040513d601f19601f820116820180604052508101906105419190610b6b565b90506000823483600a6105549190610cfa565b61055e9190610d45565b6105689190610eb1565b9050600073326c977e6efc84e512bb9c30f76e30c160ed06fb73ffffffffffffffffffffffffffffffffffffffff1663a9059cbb33846040518363ffffffff1660e01b81526004016105bb929190610f1b565b602060405180830381600087803b1580156105d557600080fd5b505af11580156105e9573d6000803e3d6000fd5b505050506040513d601f19601f8201168201806040525081019061060d9190610a12565b90508061064f576040517f08c379a000000000000000000000000000000000000000000000000000000000815260040161064690610f90565b60405180910390fd5b50505050565b7f000000000000000000000000000000000000000000000000000000000000000073ffffffffffffffffffffffffffffffffffffffff163373ffffffffffffffffffffffffffffffffffffffff16146106e3576040517f08c379a00000000000000000000000000000000000000000000000000000000081526004016106da90610ffc565b60405180910390fd5b60007f000000000000000000000000000000000000000000000000000000000000000073ffffffffffffffffffffffffffffffffffffffff164760405161072990610e30565b60006040518083038185875af1925050503d8060008114610766576040519150601f19603f3d011682016040523d82523d6000602084013e61076b565b606091505b50509050806107af576040517f08c379a00000000000000000000000000000000000000000000000000000000081526004016107a690611068565b60405180910390fd5b50565b600080fd5b6000819050919050565b6107ca816107b7565b81146107d557600080fd5b50565b6000813590506107e7816107c1565b92915050565b600073ffffffffffffffffffffffffffffffffffffffff82169050919050565b6000610818826107ed565b9050919050565b6108288161080d565b811461083357600080fd5b50565b6000813590506108458161081f565b92915050565b60008060408385031215610862576108616107b2565b5b6000610870858286016107d8565b925050602061088185828601610836565b9150509250929050565b6000610896826107ed565b9050919050565b6108a68161088b565b82525050565b60006040820190506108c1600083018561089d565b6108ce602083018461089d565b9392505050565b6000815190506108e4816107c1565b92915050565b600060208284031215610900576108ff6107b2565b5b600061090e848285016108d5565b91505092915050565b600082825260208201905092915050565b7f506c6561736520617070726f766520746f6b656e732066697273740000000000600082015250565b600061095e601b83610917565b915061096982610928565b602082019050919050565b6000602082019050818103600083015261098d81610951565b9050919050565b61099d816107b7565b82525050565b60006060820190506109b8600083018661089d565b6109c5602083018561089d565b6109d26040830184610994565b949350505050565b60008115159050919050565b6109ef816109da565b81146109fa57600080fd5b50565b600081519050610a0c816109e6565b92915050565b600060208284031215610a2857610a276107b2565b5b6000610a36848285016109fd565b91505092915050565b600069ffffffffffffffffffff82169050919050565b610a5e81610a3f565b8114610a6957600080fd5b50565b600081519050610a7b81610a55565b92915050565b6000819050919050565b610a9481610a81565b8114610a9f57600080fd5b50565b600081519050610ab181610a8b565b92915050565b600080600080600060a08688031215610ad357610ad26107b2565b5b6000610ae188828901610a6c565b9550506020610af288828901610aa2565b9450506040610b03888289016108d5565b9350506060610b14888289016108d5565b9250506080610b2588828901610a6c565b9150509295509295909350565b600060ff82169050919050565b610b4881610b32565b8114610b5357600080fd5b50565b600081519050610b6581610b3f565b92915050565b600060208284031215610b8157610b806107b2565b5b6000610b8f84828501610b56565b91505092915050565b7f4e487b7100000000000000000000000000000000000000000000000000000000600052601160045260246000fd5b60008160011c9050919050565b6000808291508390505b6001851115610c1e57808604811115610bfa57610bf9610b98565b5b6001851615610c095780820291505b8081029050610c1785610bc7565b9450610bde565b94509492505050565b600082610c375760019050610cf3565b81610c455760009050610cf3565b8160018114610c5b5760028114610c6557610c94565b6001915050610cf3565b60ff841115610c7757610c76610b98565b5b8360020a915084821115610c8e57610c8d610b98565b5b50610cf3565b5060208310610133831016604e8410600b8410161715610cc95782820a905083811115610cc457610cc3610b98565b5b610cf3565b610cd68484846001610bd4565b92509050818404811115610ced57610cec610b98565b5b81810290505b9392505050565b6000610d05826107b7565b9150610d1083610b32565b9250610d3d7fffffffffffffffffffffffffffffffffffffffffffffffffffffffffffffffff8484610c27565b905092915050565b6000610d50826107b7565b9150610d5b836107b7565b9250817fffffffffffffffffffffffffffffffffffffffffffffffffffffffffffffffff0483118215151615610d9457610d93610b98565b5b828202905092915050565b7f4e487b7100000000000000000000000000000000000000000000000000000000600052601260045260246000fd5b6000610dd9826107b7565b9150610de4836107b7565b925082610df457610df3610d9f565b5b828204905092915050565b600081905092915050565b50565b6000610e1a600083610dff565b9150610e2582610e0a565b600082019050919050565b6000610e3b82610e0d565b9150819050919050565b7f436f756c646e2774207472616e73666572204554480000000000000000000000600082015250565b6000610e7b601583610917565b9150610e8682610e45565b602082019050919050565b60006020820190508181036000830152610eaa81610e6e565b9050919050565b6000610ebc82610a81565b9150610ec783610a81565b925082610ed757610ed6610d9f565b5b600160000383147f800000000000000000000000000000000000000000000000000000000000000083141615610f1057610f0f610b98565b5b828205905092915050565b6000604082019050610f30600083018561089d565b610f3d6020830184610994565b9392505050565b7f436f756c646e74207472616e7366657220455448000000000000000000000000600082015250565b6000610f7a601483610917565b9150610f8582610f44565b602082019050919050565b60006020820190508181036000830152610fa981610f6d565b9050919050565b7f6f6e6c79206f776e65722063616e207769746864726177000000000000000000600082015250565b6000610fe6601783610917565b9150610ff182610fb0565b602082019050919050565b6000602082019050818103600083015261101581610fd9565b9050919050565b7f636f756c646e27742073656e7420657468000000000000000000000000000000600082015250565b6000611052601183610917565b915061105d8261101c565b602082019050919050565b6000602082019050818103600083015261108181611045565b905091905056fea2646970667358221220fa9b2d782636440674d29b510318fdbe3b1d4ead767f4231faca5b2de057c98f64736f6c63430008080033",
  "linkReferences": {},
  "deployedLinkReferences": {}
}